:100000000C946A000C9492000C9492000C94920050
:100010000C9492000C9492000C9492000C94920018
:100020000C9492000C9492000C9492000C94920008
:100030000C9492000C9492000C9492000C949200F8
:100040000C94A3030C9492000C94DE050C941606F9
:100050000C9492000C9492000C9492000C949200D8
:100060000C94BC160C9492000000000024002700A1
:100070002A0000000000250028002B0000000000DE
:1000800023002600290004040404040404040202DA
:100090000202020203030303030301020408102007
:1000A0004080010204081020010204081020000012
:1000B0000007000201000003040600000000000029
:1000C0000000B002D0067A0772090C0D0A0FA40FC7
:1000D0003318641B11241FBECFEFD8E0DEBFCDBFA5
:1000E00012E0A0E0B1E0E4EAF7E302C005900D926F
:1000F000A830B107D9F713E0A8E0B2E001C01D9223
:10010000AB3EB107E1F710E0C4EDD0E004C02297A8
:10011000FE010E94CC1BC23CD107C9F70E94A1027C
:100120000C946F1B0C940000EF92FF920F93DF93DF
:10013000CF93CDB7DEB76E970FB6F894DEBF0FBE84
:10014000CDBF7C0104960E94A20BC7014B960E9472
:100150005407C70181960E945407C70187960E94E1
:100160005407C7018D960E945407C701C3960E9489
:10017000540784E061E00E94AE0484E061E00E94E4
:10018000F304CE01019660EC48EA21E00BE40E9402
:100190005E078B819C81AD81BE81F701858F968F33
:1001A000A78FB0A3CE01079660EC48EA21E001E0FA
:1001B0000E945E0789859A85AB85BC85F70181A77A
:1001C00092A7A3A7B4A7CE010D966FEF4FEF2FEF25
:1001D00000E00E945E078F859889A989BA89F70196
:1001E00087A790ABA1ABB2ABCE01439660EC48EAD7
:1001F00021E00BEB0E945E078D899E89AF89B88D47
:10020000F70185AB96ABA7ABB0AFCE01499664E0E2
:1002100044E024E004E00E945E078B8D9C8DAD8D50
:10022000BE8DF70183A394A3A5A3B6A381E090E0BC
:10023000948B838B87EA92E060E071E00E94D9079B
:100240006E960FB6F894DEBF0FBECDBFCF91DF9193
:100250000F91FF90EF900895CF92DF92EF92FF926F
:100260000F931F93DF93CF93CDB7DEB76E970FB683
:10027000F894DEBF0FBECDBF8C0187EA92E068E143
:1002800071E00E94D90726EB31E03A832983F80117
:10029000858D968DA78DB0A18B839C83AD83BE8306
:1002A00038872F8383A194A1A5A1B6A189879A87B6
:1002B000AB87BC873E872D8781A592A5A3A5B4A552
:1002C0008F87988BA98BBA8B3C8B2B8B87A590A99A
:1002D000A1A9B2A98D8B9E8BAF8BB88FB8016B5E35
:1002E0007F4F8DE393E0AE014F5F5F4F9E01295F2B
:1002F0003F4F8E01035F1F4FE3E1EE2EF12CEC0E1A
:10030000FD1E0E94400F68EE73E080E090E00E94C6
:100310001F0487EA92E06DE271E00E94B9078E0146
:10032000055E1F4F9FE1E92EF12CEC0EFD1E89E1C9
:10033000C82ED12CCC0EDD1EC6016DE373E00E94E9
:10034000790FF80161918F0187EA92E04AE050E06D
:100350000E94550887EA92E06DE371E00E94B907B8
:100360000E151F0549F787EA92E00E94C4076E96B2
:100370000FB6F894DEBF0FBECDBFCF91DF911F91B6
:100380000F91FF90EF90DF90CF900895CF93DF9380
:10039000EC018B899C898130910529F4CE010E9462
:1003A0002C011C8A1B8ADF91CF910895EF92FF9256
:1003B0000F93DF93CF93CDB7DEB763970FB6F89463
:1003C000DEBF0FBECDBF7C010E94A20BC7010F96FE
:1003D0000E9454070E94BF14BC0187EA92E04AE0E1
:1003E00050E00E949808CE0107960E94A20B8985D2
:1003F0009A85F701938382838B859C85AD85BE8525
:1004000084839583A683B7838F859889A989BA89C0
:1004100080879187A287B3878B898487CE010196D5
:1004200060EC48EA21E00BEB0E945E078B819C8127
:10043000AD81BE81F701818B928BA38BB48B86EA51
:100440009FE1968B858B108E178A128E118E0E94DB
:100450004603F701E55EFE4F9183808363960FB6F6
:10046000F894DEBF0FBECDBFCF91DF910F91FF900B
:10047000EF9008950F931F93CF93DF9381E090E067
:100480000E9489078C0185E193E00E944309C7EA35
:10049000D2E0CE016FE371E00E94D90710930D0204
:1004A00000930C02CE0140E855E260E070E00E944B
:1004B0005106CE016DE471E00E94D90789E390E016
:1004C0000E9489078C010E949400009308021093F7
:1004D00009028DE191E00E948907182F092F0E94DF
:1004E000D60110930A0200930B0280910C029091A6
:1004F0000D026DE571E041E050E00E947C0368EE82
:1005000073E080E090E00E941F04DF91CF911F9183
:100510000F91089580910802909109020E94C601EE
:1005200080910C0290910D0265E771E041E050E08E
:100530000E947C0360ED77E080E090E00E941F0461
:100540000895CF93DF930E9446040E943A02CDE0C3
:10055000D6E00E948A022097E1F30E940D06F9CFAF
:100560000F938EE092E060E040E020E000E00E9427
:100570005E070F910895CF92DF92EF92FF920F9353
:100580001F93DF93CF9300D0CDB7DEB76C01F62E6B
:10059000E42E83E190E029837A830E9489078C010D
:1005A0006F2D7A814E2D29810E948909F6010083E1
:1005B0001183E282F382C8010E94D809F60180818A
:1005C00091810E94E609F601808191816FEF0E947E
:1005D000A70A0F900F90CF91DF911F910F91FF907D
:1005E000EF90DF90CF900895EF92FF920F931F93BB
:1005F000CF93DF93EC0184E090E00E948C07998315
:10060000888384E890E00E948C07E82FF92FAF01DF
:100610004C575F4F28EE33E0118210821382128212
:1006200030872783128611863B96E417F507A1F7DA
:100630008A839B83888199816CE070E049E023E0A4
:100640000E94BB02EE24FF2400E010E010C0EA810B
:10065000FB81EE0DFF1D02831382888199819183B6
:1006600080830F5F1F4F8BE090E0E80EF91E8881BA
:1006700099810E94600390E00817190744F3DF9105
:10068000CF911F910F91FF90EF9008950F931F93BB
:100690008091140290911502009759F484E090E043
:1006A0000E9489078C010E94F402009314021093A7
:1006B000150280911402909115021F910F910895D7
:1006C000FC01838108956115710591F0DB010D90A6
:1006D0000020E9F7AD0141505040461B570BDC01AB
:1006E000ED91FC910280F381E02D09959C0102C0FF
:1006F00020E030E0C9010895EF92FF920F931F931D
:10070000CF93DF938B017A01C7EAD2E0CE0160E993
:1007100071E00E94B907CE01B8010E94D907C5E176
:10072000D3E0CE01B7010E945809CE01B8010E9462
:100730006303CE010E946E09DF91CF911F910F914B
:10074000FF90EF9008951F920F920FB60F92112411
:100750002F933F938F939F93AF93BF9380911A02F0
:1007600090911B02A0911C02B0911D0230911E02BB
:100770000196A11DB11D232F2D5F2D3720F02D5780
:100780000196A11DB11D20931E0280931A02909321
:100790001B02A0931C02B0931D028091160290913F
:1007A0001702A0911802B09119020196A11DB11D66
:1007B0008093160290931702A0931802B093190227
:1007C000BF91AF919F918F913F912F910F900FBE4D
:1007D0000F901F9018958FB7F89420911A023091BE
:1007E0001B0240911C0250911D028FBFB901CA012A
:1007F00008959FB7F8942091160230911702409106
:1008000018025091190286B5A89B06C08F3F21F0AF
:100810002F5F3F4F4F4F5F4F9FBF542F432F322FBC
:100820002227280F311D411D511D82E0220F331F49
:10083000441F551F8A95D1F7B901CA010895EF9257
:10084000FF920F931F93CF93DF937B018C010E9444
:10085000F903EB010FC00E94F9036C1B7D0B83E0D1
:10086000683E780738F00894E108F1080109110999
:10087000C851DC4FE114F1040105110561F7DF9166
:10088000CF911F910F91FF90EF900895789484B5C8
:10089000826084BD84B5816084BD85B5826085BD7C
:1008A00085B5816085BDEEE6F0E080818160808362
:1008B000E1E8F0E010828081826080838081816045
:1008C0008083E0E8F0E0808181608083E1EBF0E00C
:1008D000808184608083E0EBF0E0808181608083B0
:1008E000EAE7F0E080818460808380818260808399
:1008F0008081816080838081806880831092C100C4
:100900000895833071F0843028F48130A1F0823072
:1009100021F514C08630B1F08730D1F08430E9F48D
:1009200004C0809180008F7703C0809180008F7D0C
:1009300080938000089584B58F7702C084B58F7D41
:1009400084BD08958091B0008F778093B0000895A2
:100950008091B0008F7D8093B0000895EF92FF9258
:10096000CF93DF9390E0FC01E656FF4F44918A5706
:100970009F4FFC018491882389F190E0880F991F93
:10098000FC01E859FF4F25913491D9018E589F4FB2
:10099000FC0125913491E22EE7017E01F32EE7015F
:1009A000662349F49FB7F8948C91409584238C93E7
:1009B000888184230BC0623059F49FB7F8948C91DE
:1009C000242F209582238C938881842B888305C0D3
:1009D0009FB7F8948C91842B8C939FBFDF91CF911C
:1009E000FF90EF9008950F931F93DF93CF930F9293
:1009F000CDB7DEB7282F30E0F901E255FF4F8491E3
:100A0000F901E656FF4F14912A573F4FF90104911F
:100A10000023D9F0882321F069830E948104698131
:100A2000E02FF0E0EE0FFF1FEE58FF4F85919491FD
:100A3000DC019FB7F894662321F48C9110958123F3
:100A400002C08C91812B8C939FBF0F90CF91DF912F
:100A50001F910F910895FC0184859585FC01E05C50
:100A6000FF4F208131818E5B9F4FFC0180819181FE
:100A7000281B390B2F733070C9010895FC01848540
:100A80009585FC01E05CFF4F40815181FC01EE5BEC
:100A9000FF4F208131814217530741F00190F081CF
:100AA000E02DE80FF91F208130E002C02FEF3FEF6B
:100AB000C9010895FC0184859585FC01E05CFF4F28
:100AC00040815181FC01EE5BFF4F20813181421753
:100AD000530771F0A081B181A80FB91F2C918081BB
:100AE000918101968F7390709183808330E002C072
:100AF0002FEF3FEFC9010895FC0181A1882329F060
:100B0000A489B5898C9186FFFBCF11A20895FC01C1
:100B100026853785D901A05CBF4F8D919C910196A8
:100B20008F739070D901AE5BBF4F4D915C9111975F
:100B300084179507D1F3D901A05CBF4F0D90BC91EC
:100B4000A02DA20FB31F6C93A685B785A05CBF4FE5
:100B500011969C938E93A689B7892C9181E090E0A1
:100B6000078C02C0880F991F0A94E2F7282B2C9358
:100B700081E081A30488F589E02D808180648083F1
:100B800081E090E00895FB01E05CFF4F208131811E
:100B90002F5F3F4F2F733070DB01AE5BBF4F4D9126
:100BA0005C9111972417350739F0A081B181A60F08
:100BB000B71F8C9331832083089508951F920F925D
:100BC0000FB60F9211242F933F934F935F936F9320
:100BD0007F938F939F93AF93BF93EF93FF938091F6
:100BE000C00082FD07C08091C6006FE172E00E94E4
:100BF000C30502C08091C600FF91EF91BF91AF91F4
:100C00009F918F917F916F915F914F913F912F9124
:100C10000F900FBE0F901F90189587EA92E00E94E8
:100C20002B05009711F00E94DD0508951F920F9289
:100C30000FB60F9211242F933F938F939F93EF93AF
:100C4000FF932091A3023091A4028091A50290917C
:100C5000A6022817390731F48091C1008F7D809357
:100C6000C10014C0E091A502F091A602ED59FD4F1C
:100C700020818091A5029091A60201968F739070B9
:100C80009093A6028093A5022093C600FF91EF9156
:100C90009F918F913F912F910F900FBE0F901F90BA
:100CA0001895DF92EF92FF920F931F93CF93DF93EC
:100CB000EC017A018B01DD24D394403081EE58079A
:100CC00080E0680780E0780749F4DD24EC89FD893D
:100CD000108260E874E88EE190E00FC0EC89FD8935
:100CE00081E090E008A002C0880F991F0A94E2F703
:100CF000808360E079E08DE390E0A80197010E9495
:100D00008D1B2150304040405040569547953795B7
:100D1000279580E12030380710F0DD20B1F6E88912
:100D2000F9893083EA89FB89208319A2EE89FF893A
:100D3000408181E090E09C010C8C02C0220F331FA7
:100D40000A94E2F7422B4083EE89FF8940819C019F
:100D50000D8C02C0220F331F0A94E2F7422B40830E
:100D6000EE89FF8940819C010E8C02C0220F331F47
:100D70000A94E2F7422B4083EE89FF8920810F8C91
:100D800002C0880F991F0A94E2F78095822380831E
:100D9000DF91CF911F910F91FF90EF90DF90089519
:100DA0001092AA021092A90288EE93E0A0E0B0E0AF
:100DB0008093AB029093AC02A093AD02B093AE02CD
:100DC000E9EAF2E086EA91E0929382938FE192E081
:100DD0009587848783E692E09787868785EC90E005
:100DE000918B808B84EC90E0938B828B80EC90E0F5
:100DF000958B848B81EC90E0978B868B82EC90E0D6
:100E0000918F808F86EC90E0938F828F84E0848F27
:100E100083E0858F87E0868F85E0878F81E080A3E0
:100E200008958F929F92AF92BF92CF92DF92EF92EE
:100E3000FF920F931F93CF93DF934C017B0182E0CE
:100E4000A82EB12CA80CB91CC0E0D0E0CC24DD2425
:100E5000F50161915F01C7014AE050E00E94550829
:100E60008C01C7016EE20E94BC07080F191FC00E5B
:100E7000D11E2196C330D10559F7C701F401658110
:100E80004AE050E00E945508C80ED91EC601DF9105
:100E9000CF911F910F91FF90EF90DF90CF90BF9077
:100EA000AF909F908F900895FC0186EB91E0918325
:100EB0008083128213821482158208950F93FC019D
:100EC00086EB91E09183808362834383248305834F
:100ED0000F910895CF93DF93FC01EB0188819981F5
:100EE000AA81BB8182839383A483B583CF01DF91E1
:100EF000CF91089586EB91E09093CA028093C90246
:100F00001092CB021092CC021092CD021092CE021F
:100F100008950E94E51408950E94E5140895CF9263
:100F2000DF92EF92FF920F931F93CF93DF936C01A9
:100F30007B018A01C0E0D0E00FC0D7016D917D0137
:100F4000D601ED91FC910190F081E02DC60109954B
:100F5000C80FD91F015010400115110571F7CE01BE
:100F6000DF91CF911F910F91FF90EF90DF90CF9085
:100F700008950E9463030895DC01ED91FC910190B6
:100F8000F081E02D099508950F931F93CF93DF9380
:100F9000EC016DE00E94BC078C01CE016AE00E946A
:100FA000BC07080F191FC801DF91CF911F910F9146
:100FB00008950F931F93CF93DF93EC010E94630377
:100FC0008C01CE010E94C407080F191FC801DF91D0
:100FD000CF911F910F9108958F929F92AF92BF92E0
:100FE000CF92DF92EF92FF920F931F93DF93CF93F5
:100FF000CDB7DEB7A1970FB6F894DEBF0FBECDBF59
:101000006C01042FE52FCB01122F19A2223008F416
:101010001AE021E2E22EF12CEC0EFD1E812E992425
:10102000AA24BB2403C0022FE32FCA01602F7E2F06
:10103000A50194010E948D1B129F802D1124081B75
:101040000894E108F1080A3014F4005D01C0095C5D
:10105000F7010083211531054105510521F7C6012E
:10106000B7010E946303A1960FB6F894DEBF0FBECE
:10107000CDBFCF91DF911F910F91FF90EF90DF9047
:10108000CF90BF90AF909F908F900895211531051C
:1010900049F4DC01ED91FC910190F081E02D642F89
:1010A000099508950E94EC0708959A01462F50E093
:1010B00060E070E00E9446080895CF92DF92EF92C0
:1010C000FF920F931F93CF93DF93EC017A018B0173
:1010D0002115310541F4E881F9810190F081E02D7D
:1010E000642F09951AC02A303105A9F477FF12C080
:1010F0006DE20E94BC076C0144275527BA014E19C6
:101100005F09600B710BCE012AE00E94EC07C80E4C
:10111000D91E04C02AE00E94EC076C01C601DF91D1
:10112000CF911F910F91FF90EF90DF90CF90089596
:101130000F931F93CF93DF93EC019A01CB01AC0186
:10114000662757FD6095762FCE010E945D088C01C1
:10115000CE010E94C407080F191FC801DF91CF916B
:101160001F910F9108952091F00230E08091EF02DD
:10117000281B3109C90108958091EF029091F00276
:10118000891750F4E82FF0E0E153FD4F208130E063
:101190008F5F8093EF0202C02FEF3FEFC9010895E8
:1011A000E091EF028091F002E81730F4F0E0E153B3
:1011B000FD4F208130E002C02FEF3FEFC9010895BD
:1011C0000895CF92DF92EF92FF920F931F93CF93E8
:1011D000DF936C01CB01EA01209114032223B1F0CB
:1011E000E62EF92E00E010E00DC0D7016D917D01D3
:1011F000D601ED91FC910190F081E02DC601099599
:101200000F5F1F4F0C171D0780F303C0642F0E9450
:101210008A16CE01DF91CF911F910F91FF90EF9031
:10122000DF90CF900895DF93CF930F92CDB7DEB7C5
:101230006983209114032223D1F0209113032032DB
:1012400040F021E030E0FC013383228320E030E0F5
:1012500015C080911203E82FF0E0EE50FD4F998108
:1012600090838F5F809312038093130305C0CE0198
:10127000019661E00E948A1621E030E0C9010F90DA
:10128000CF91DF9108951092EF021092F002109228
:101290001203109213030E941816089581E08093A0
:1012A00014036093F1021092120310921303089535
:1012B0000E944E0908950F93062F8091F10262EF6C
:1012C00072E04091130321E00E943616109212033F
:1012D00010921303109214030F91089561E00E947D
:1012E0005B090895109218031092170388EE93E09B
:1012F000A0E0B0E08093190390931A03A0931B031E
:10130000B0931C038CEB91E090931603809315032C
:101310000895FF920F931F93CF93DF93EC01F22E6A
:1013200048837A8369838B01000F111F060F171FF3
:101330000B831C831D822B871C861D861E861F86A1
:1013400050E0FA01EA57FF4FE491F0E0EE0FFF1F83
:10135000EE58FF4F85919491888B998B46565F4F3D
:10136000FA0144914A8BC8010E94E5149F838E8341
:10137000009729F060E070E0A8010E94721BF0FE67
:1013800004C081E0888719860BC0F2FE06C081E0A8
:10139000888782E089871A8605C0188681E0898758
:1013A00082E08A87DF91CF911F910F91FF9008957E
:1013B000CF93DF93EC01888161E00E94AE048881C5
:1013C00060E00E94F304DF91CF910895EF92FF92C5
:1013D0000F931F93DF93CF93CDB7DEB727970FB649
:1013E000F894DEBF0FBECDBF8C01DC0116968D9147
:1013F0009C911797009709F49DC00E94F903F8018A
:101400002485358546855785621B730B840B950BA8
:10141000623371058105910580F3F894D801139624
:101420008D919C9114979F838E831696ED90FC90DE
:101430001797F70181917F0189831B969C911B97D8
:1014400050960D90BC91A02DF801828991FF2EC07D
:101450009C91982B9A839C91809589238B838B8177
:101460008D8388E08C835A816B8149813C812D81F9
:101470008E819F81F7015C9347FD252F3A952C9330
:10148000262F39F0441F00C000006C93000000C0FC
:10149000F2CF38E041916C930000019761F7F801B9
:1014A000B18BA08B49833C832D8338C09C91982BB2
:1014B0009A839C91809589238B838B818C8388E090
:1014C0008D835A816B8149813D812C818E819F81E1
:1014D000F7015C9347FD252F00C000C02C9300C08E
:1014E00000C000C000C000C06C930000262F3A95D9
:1014F00041F0441F000000C000C000C000C000C098
:10150000E8CF38E0419100C06C9300C0019709F723
:10151000F801B18BA08B49833D832C839F838E83FD
:1015200078940E94F903D8011C966D937D938D9356
:101530009C931F9727960FB6F894DEBF0FBECDBFC2
:10154000CF91DF911F910F91FF90EF900895FF923F
:101550000F931F93CF93DF93EC01F62EF3942D811D
:10156000F21689F10E811F812150A9F06F3F51F4CD
:1015700030E040E050E06FEF7FEF80E090E00E94CD
:10158000AF1B0BC09F2D80E00197622F70E00E947F
:10159000791B9B0102C020E030E080E090E00DC0AC
:1015A000F801608170E0269FA001279F500D369FB3
:1015B000500D112451938F0101964B815C8184174A
:1015C000950770F3FD82DF91CF911F910F91FF90EE
:1015D0000895DF93CF930F92CDB7DEB76983DC0117
:1015E000ED91FC910280F381E02DBE016F5F7F4F92
:1015F00041E050E009950F90CF91DF910895CF938E
:10160000DF93EC0107C0E881F9810680F781E02DC6
:10161000CE010995E881F9810480F581E02DCE01A4
:101620000995009781F7DF91CF91089521E0FC01A2
:101630008485883009F420E0822F08950F931F934A
:10164000DF93CF930F92CDB7DEB78C01DC01ED9124
:10165000FC910480F581E02D0995009751F0F80187
:101660008485BE016F5F7F4F0E945B11298130E04E
:1016700002C02FEF3FEFC9010F90CF91DF911F9173
:101680000F910895FC0184850E9413110895DF9342
:10169000CF930F92CDB7DEB7FC018485BE016F5F9B
:1016A0007F4F41E050E00E941311181619061CF4F8
:1016B000298130E002C02FEF3FEFC9010F90CF9199
:1016C000DF910895FC016485683039F08DE493E082
:1016D0000E949A13282F392F02C020E030E0C90160
:1016E0000895EF92FF920F931F93CF93DF938C0196
:1016F000EA01FC018485883019F481E090E007C09C
:101700000E94C010009739F481E090E0F8019383C3
:101710008283C0E0D0E0CE01DF91CF911F910F9185
:10172000FF90EF90089590E0805C9F4F982F88275E
:10173000860F971F0E94E312089563E070E00E94F5
:10174000930B0895FC011382128228EE33E040E0EF
:1017500050E024833583468357838CEC91E091835A
:10176000808388E084870895CF93DF93EC010E9403
:101770005407CE0108960E94880EDF91CF910895FC
:101780006F927F928F929F92AF92BF92CF92DF9291
:10179000EF92FF920F931F93DF93CF93CDB7DEB7F6
:1017A000E5970FB6F894DEBF0FBECDBF5C014B01CD
:1017B0003A0133E1E32EF12CEC0EFD1EC7010E942D
:1017C000B40B6E010894C11CD11CC6010E945407C1
:1017D0008E01095F1F4FC8016DE373E00E94930FF4
:1017E000C701B8010E943E18C701B401A6010E94BA
:1017F000C61A9C0181309105C9F4D501ED91FC9187
:101800000484F585E02D86EB91E09E878D878B81A2
:101810009C81AD81BE818F87988BA98BBA8BC501C6
:10182000BE01635F7F4FA30109959C01C901E59645
:101830000FB6F894DEBF0FBECDBFCF91DF911F91E1
:101840000F91FF90EF90DF90CF90BF90AF909F905F
:101850008F907F906F900895FC018485883019F0F7
:101860000E949D0B089580E00895CF93DF93EC01D3
:101870008C858830D1F0CE010E942C0C843181F00F
:10188000882371F0883161F08C3161F4E881F9814D
:101890000480F581E02DCE01099521E0009719F42F
:1018A00020E001C021E0822F01C080E0DF91CF91D4
:1018B0000895EF92FF920F931F93CF93DF93EC0164
:1018C0008C858830A1F10E94B8100E94EB037B0147
:1018D0008C01CE010E942C0C882319F10E94EB038D
:1018E0006E197F09800B910B683E23E0720720E0A0
:1018F000820720E09207A8F461E070E080E090E0C9
:101900000E941F04E6CF8C850E943410EC85F0E025
:10191000EE0FFF1FE35DFC4F1182108288E08C8781
:1019200006C0CE010E942C0C882381F3ECCFDF91FE
:10193000CF911F910F91FF90EF900895BF92CF929A
:10194000DF92EF92FF920F931F93CF93DF93EC01FF
:101950008B016A018C85883009F051C0EE24FF2488
:10196000BE2C8E2D0E949D0B882321F0883111F012
:101970008C3111F4BC8607C00894E11CF11C88E08E
:10198000E816F10469F78C858830C9F120919A0135
:1019900030919B012F5F3F4F30939B0120939A0121
:1019A0002115310531F420E034E030939B01209380
:1019B0009A0140919A0150919B0161E020E00E94C0
:1019C0004310B8016E5F7F4F8C85A6010E94821084
:1019D00009C061E070E080E090E00E941F04CE0149
:1019E0000E942C0C882319F488E08C8708C0CE0153
:1019F0000E942C0C873169F721E030E002C020E022
:101A000030E0C901DF91CF911F910F91FF90EF90CE
:101A1000DF90CF90BF9008950F9381E293E060E054
:101A200040E020E000E00E945E070F910895DC0195
:101A3000ED91FC91008CF18DE02D09950895FC014C
:101A400026EB31E031832083DB0151962D913D91CE
:101A50004D915C9154972283338344835583089539
:101A6000FC01858996890895FC01818D928D0895E8
:101A7000DF93CF930F92CDB7DEB76983DC01ED9191
:101A8000FC910280F381E02DBE016F5F7F4F41E04A
:101A900050E009950F90CF91DF910895CF93DF9398
:101AA000EC0107C0E881F9810680F781E02DCE01C5
:101AB0000995898D9A8D0097A9F7DF91CF910895A7
:101AC000DF93CF930F92CDB7DEB7FC01818D928D5E
:101AD000009749F08485BE016F5F7F4F0E945B11C4
:101AE000298130E002C02FEF3FEFC9010F90CF9165
:101AF000DF910895CF93DF93EC01298D3A8D211565
:101B00003105A1F04217530718F08C85A90101C0D7
:101B10008C850E9413119C01181619063CF4898DBE
:101B20009A8D821B930B9A8F898F02C02FEF3FEF04
:101B3000C901DF91CF9108950F931F93DF93CF9346
:101B40000F92CDB7DEB78C01FC01818D928D00978D
:101B5000A1F08485BE016F5F7F4F41E050E00E949D
:101B60001311181619064CF4F801818D928D019706
:101B7000928F818F298130E002C02FEF3FEFC901A2
:101B80000F90CF91DF911F910F910895EF92FF92E7
:101B90000F931F93DF93CF93CDB7DEB728970FB680
:101BA000F894DEBF0FBECDBF8C01DC01ED91FC913E
:101BB0000284F385E02D09958DE493E0F8016485B6
:101BC0000E949A13009729F1D8011C968C917E01EE
:101BD0000894E11CF11CB70148E050E00E94131189
:101BE0009C0118161906BCF4C8010F96B7010E9493
:101BF0006A079D8180E02E81820F911DF801968BEE
:101C0000858B3F8120E08885280F311D328F218F01
:101C100002C020E030E0C90128960FB6F894DEBF7C
:101C20000FBECDBFCF91DF911F910F91FF90EF902D
:101C30000895CF93DF93EC01FB019A016F89788DB2
:101C40008C85AF010E946A119C018F89988D820F4B
:101C5000931F988F8F8BC901DF91CF910895FC015D
:101C600084850E94C6110895FC01108E178A6E5F4C
:101C70007F4F84850E94A0110895CF93DF93EC01DC
:101C80008C85883061F00E943410EC85F0E0EE0F16
:101C9000FF1FE35DFC4F1182108288E08C87DF918B
:101CA000CF910895DF92EF92FF920F931F93CF93FE
:101CB000DF93EC018B018C85883009F5EE24FF243D
:101CC000DE2C8E2D0E949D0B882311F0883111F49B
:101CD000DC8607C00894E11CF11C88E0E816F104DA
:101CE00079F78C85883059F01E870D871A8E198EEA
:101CF00062E0A80120E00E94431081E001C080E082
:101D0000DF91CF911F910F91FF90EF90DF90089599
:101D1000FC011382128228EE33E040E050E024837D
:101D200035834683578388EE91E09183808388E0F2
:101D30008487CF010F960E94540708956F927F9277
:101D40008F929F92AF92BF92CF92DF92EF92FF92CB
:101D50000F931F93DF93CF93CDB7DEB7E5970FB601
:101D6000F894DEBF0FBECDBF5C014B013A0133E1F9
:101D7000E32EF12CEC0EFD1EC7010E94B40B6E0188
:101D80000894C11CD11CC6010E9454078E01095F32
:101D90001F4FC8016DE373E00E94930FC701B801A4
:101DA0000E943E18C701B401A6010E94C61A9C01F8
:101DB00081309105C9F4D501ED91FC910088F1893C
:101DC000E02D86EB91E09E878D878B819C81AD8194
:101DD000BE818F87988BA98BBA8BC501BE01635FCB
:101DE0007F4FA30109959C01C901E5960FB6F894B0
:101DF000DEBF0FBECDBFCF91DF911F910F91FF903E
:101E0000EF90DF90CF90BF90AF909F908F907F909A
:101E10006F9008950F9387E293E060E040E020E048
:101E200000E00E945E070F910895BC0181E090E000
:101E300044E050E00E94A0120895BC0185E090E0CB
:101E400044E050E00E94A0120895BC0189E090E0B7
:101E500046E050E00E94A0120895BC018FE090E09F
:101E600044E050E00E94A01208950E942D0F0895B2
:101E7000BC018FE090E044E050E00E94F013089530
:101E80008F929F92AF92BF92CF92DF92EF92FF928A
:101E90000F931F93CF93DF934C015B016A01E9011C
:101EA0008DE493E00E943812C5010E94250FC601FF
:101EB00002960E94350FC80102960E94150FC701B5
:101EC00002960E941D0F8A819B81AC81BD81F40125
:101ED00082839383A483B583DF91CF911F910F9168
:101EE000FF90EF90DF90CF90BF90AF909F908F903A
:101EF0000895EF92FF920F931F93CF93DF938C017E
:101F0000E82EE7017E01F12EC7010E945407C701A8
:101F100002960E94380FC801DF91CF911F910F9157
:101F2000FF90EF900895FC0126EB31E03183208390
:101F3000DB0112962D913D914D915C911597228375
:101F400033834483558308950F9385E493E060E0E1
:101F500040E020E000E00E945E078DE393E00E94F5
:101F600054070F91089562E070E00E94930B08956A
:101F7000EF92FF921F93CF93DF93182F68E270E0E8
:101F80000E94930B80E0EC01812F69E270E00E94D7
:101F9000930BC80FD11DCE01DF91CF911F91FF9000
:101FA000EF90089590E0805C9F4F982F8827860FD0
:101FB000971F642F0E94F6110895462F62E070E08B
:101FC0000E94D20F08950F931F93182F062F472FAB
:101FD00060E170E00E94D20F812F61E170E0402F3C
:101FE0000E94D20F1F910F9108950F931F93182FE6
:101FF000062F472F68E270E00E94D20F812F69E21E
:1020000070E0402F0E94D20F1F910F910895462F2C
:1020100060E070E00E94D20F08950F931F93182F75
:10202000062F472F64E070E00E94D20F812F65E0F9
:1020300070E0402F0E94D20F1F910F910895FB0175
:10204000BA0190E0805C9F4F982F88278E0F9F1FCA
:10205000A9010E94A0120895AB016CE070E024E099
:1020600030E00E941F1008951F93182F8DE493E015
:10207000612F40E150E00E949F14812F6FEF0E947A
:10208000DD0F1F910895EF92FF921F93DF93CF937F
:1020900000D0CDB7DEB7182F7A01862F815085305A
:1020A00040F5812F2A8369830E9434102A81698137
:1020B000622B812F0E940710E114F10419F0812F87
:1020C000B7010CC020914B0330914C032F5F3F4F61
:1020D00030934C0320934B03812FB9010E940D10C4
:1020E0008DE493E0612F41E050E00E949F1481E075
:1020F00001C080E00F900F90CF91DF911F91FF9072
:10210000EF9008951F93CF93DF93182FFB01EA01FF
:1021100080818F3F51F481818F3F91F482818F3F85
:1021200079F483818F3F61F41EC0882349F4818153
:10213000882331F48281882319F48381882399F0DC
:10214000209789F0812FBF010E942C10812FBE01A2
:102150000E94E30F8DE493E0612F44E050E00E9481
:102160009F1481E001C080E0DF91CF911F9108951D
:10217000682F8DE493E048E050E00E949F1408959A
:10218000CF92DF92EF92FF921F93CF93DF93182F9E
:102190007B01C42EE6016E01D52EE60138E0C13088
:1021A000D30710F0C0E0D8E08DE493E0612F0E94E7
:1021B000D2136C01812F0E949D0B873111F08C315D
:1021C00021F4CC16DD0680F302C0C0E0D0E08DE43F
:1021D00093E0612FA7019E010E9474138DE493E0A8
:1021E000612F40E250E00E949F140BC0812F0E949B
:1021F0009D0B882331F4812F0E943410C0E0D0E081
:1022000009C0812F0E94B30F84FFF0CF812F60E1BE
:102210000E94DD0FCE01DF91CF911F91FF90EF90D3
:10222000DF90CF900895AF92BF92CF92DF92EF925E
:10223000FF920F931F93CF93DF93F82E6B018A01C8
:102240008DE493E06F2D0E949A13A82EE5015E01A4
:10225000B92EE501209751F48F2D0E949D0B8431FA
:10226000D9F08823C9F08C31B9F022C00A151B05BA
:102270000CF4E8011C161D067CF48DE493E06F2D30
:10228000A6019E0100E00E946E148DE493E06F2D84
:1022900040E450E00E949F14CE01DF91CF911F9146
:1022A0000F91FF90EF90DF90CF90BF90AF90089587
:1022B000CFEFDFEFF1CF0F93282FAB018DE493E049
:1022C000622F21E030E001E00E946E1481E090E096
:1022D0000F9108958F929F92AF92BF92CF92DF920B
:1022E000EF92FF920F931F93CF93DF93182F6B0101
:1022F0005A01E9018DE493E0612F0E94D2138C17FB
:102300009D0738F48DE493E0612F0E94D2137C0185
:1023100001C07E018DE493E0612FA6019501870144
:102320000E942413C701DF91CF911F910F91FF905D
:10233000EF90DF90CF90BF90AF909F908F900895D7
:102340001F93CF93DF93182FFB01EA01808188232D
:1023500049F48181882331F48281882319F48381AF
:10236000882369F0209759F0812FBF010E942C101B
:10237000812FBE010E94E30F21E030E002C020E087
:1023800030E0C901DF91CF911F9108951F93182F5D
:102390008DE493E0612F40E250E00E949F140CC056
:1023A000812F0E94B30F83FF07C0812F68E10E9435
:1023B000DD0F20E030E00BC0812F0E94B30F84FFBF
:1023C000EFCF812F60E10E94DD0F21E030E0C901F5
:1023D0001F9108958EBD0DB407FEFDCF8EB50895F3
:1023E000229A08952A9808952A9A08951F93DF93B0
:1023F000CF9300D0CDB7DEB7182F6A8399830E94A0
:10240000F21189810E94EA11812F0E94EA1180E86D
:102410000E94EA1181E00E94EA116A81862F0E94DF
:10242000EA110E94F41181E00F900F90CF91DF919B
:102430001F910895462F61E070E00E94D20F089529
:102440000F931F93182F062F472F64E270E00E940E
:10245000D20F812F65E270E0402F0E94D20F1F91B2
:102460000F910895682F80E090E00E94F611089582
:102470000F931F93CF93DF93EC016CE271E080E048
:1024800090E00E941F040E941C180E94F01180E836
:102490000E9432120FE110E4C80162E00E94F611BE
:1024A000C801019762E00E94F61100501F4F88E4B6
:1024B0000F31180789F780E090E89983888380E0DE
:1024C00090EC998B888B80E098E89B838A8380E0EE
:1024D00098EC9B8B8A8B80E090E99D838C8380E0D5
:1024E00090ED9D8B8C8B80E098E99F838E8380E0BC
:1024F00098ED9F8B8E8B80E090EA9987888780E0AB
:1025000090EE998F888F80E098EA9B878A8780E099
:1025100098EE9B8F8A8F80E090EB9D878C8780E080
:1025200090EF9D8F8C8F80E098EB9F878E8780E067
:1025300098EF9F8F8E8FDF91CF911F910F9108950C
:10254000CF92DF92EF92FF920F931F93DF93CF937F
:1025500000D00F92CDB7DEB7082F6A016A837B8364
:1025600099830E94F21189810E94EA11802F0E94B2
:10257000EA11C60180709F77892F80680E94EA1156
:102580008C2D0E94EA116A817B81E62EF72E00E0F5
:1025900010E007C0F70181917F010E94EA110F5FEF
:1025A0001F4F0C151D05B0F30E94F411C6010F90CA
:1025B0000F900F90CF91DF911F910F91FF90EF90AF
:1025C000DF90CF9008951F93DF93CF930F92CDB7F5
:1025D000DEB7182F99830E94F21189810E94EA11B7
:1025E000812F0E94EA1180E00E94EA1181E00E949E
:1025F000EA1180E00E94EA1189830E94F411898126
:102600000F90CF91DF911F91089561E070E00E94DB
:10261000930B0895EF92FF921F93CF93DF93182FA0
:1026200064E270E00E94930B80E0EC01812F65E290
:1026300070E00E94930BC80FD11DCE01DF91CF91A6
:102640001F91FF90EF9008959F92AF92BF92CF920B
:10265000DF92EF92FF920F931F93CF93DF937C0152
:10266000962E6A015901862F0E940A13C80ED91EA0
:1026700096013770892D90E0880F991FE80EF91E9A
:10268000F70180819181820F931FA901400F511F93
:10269000F8E041305F0790F0C0E0D8E0C21BD30BF8
:1026A000B501AE010E94A012B5016C0F7D1FA801FB
:1026B0004C1B5D0BF7018081918102C0B501A8011F
:1026C0000E94A012B601600F711F892D0E94201276
:1026D000DF91CF911F910F91FF90EF90DF90CF90FE
:1026E000BF90AF909F9008950F931F93FA018901B7
:1026F00040E050E09F010E9424131F910F91089524
:10270000EF92FF921F93CF93DF93182F66E270E052
:102710000E94930B80E0EC01812F67E270E00E9441
:10272000930BC80FD11DCE01DF91CF911F91FF9068
:10273000EF900895EF92FF920F931F93CF93DF9343
:10274000F62EC0E0D0E08F2D0E9480138C01009700
:1027500021F08F2D0E948013EC01C017D10799F74B
:10276000CE01DF91CF911F910F91FF90EF900895CF
:10277000EF92FF921F93CF93DF93182F60E270E0E8
:102780000E94930B80E0EC01812F61E270E00E94D7
:10279000930BC80FD11DCE01DF91CF911F91FF90F8
:1027A000EF900895EF92FF920F931F93CF93DF93D3
:1027B000F62EC0E0D0E08F2D0E94B8138C01009758
:1027C00021F08F2D0E94B813EC01C017D10799F7A3
:1027D000CE01DF91CF911F910F91FF90EF9008955F
:1027E000CF92DF92EF92FF920F931F93DF93CF93DD
:1027F00000D00F92CDB7DEB7082F6A016A837B83C2
:1028000099830E94F21189810E94EA11802F0E940F
:10281000EA11C60180709F77892F0E94EA118C2DE2
:102820000E94EA116A817B81E62EF72E00E010E01B
:1028300008C080E00E94EA11F70181937F010F5FD9
:102840001F4F0C151D05A8F30E94F411C6010F902F
:102850000F900F90CF91DF911F910F91FF90EF900C
:10286000DF90CF900895CF92DF92EF92FF920F9377
:102870001F93CF93DF93690178015770C62FD0E083
:102880002896CC0FDD1FC80FD91F88819981840F2E
:10289000951F9801240F351F68E02130360788F016
:1028A00000E018E0041B150BB601A8010E94F0130C
:1028B000B601600F711FA701401B510B88819981E0
:1028C00002C0B601A8010E94F013DF91CF911F91C1
:1028D0000F91FF90EF90DF90CF9008958F929F928D
:1028E000AF92BF92CF92DF92EF92FF920F931F931E
:1028F000CF93DF935C01E62E4A016901F02E862F0B
:102900000E94B80FEC01C5016E2DAE019401860145
:102910000E943314FF2031F4BE016C0D7D1D8E2DFD
:102920000E94F50FDF91CF911F910F91FF90EF90D3
:10293000DF90CF90BF90AF909F908F9008951F939E
:10294000162F862F642F0E941A12812F0E940513C2
:102950008823D9F71F910895E091E903F091EA03E4
:1029600020E030E008C0808191810296280F391F55
:102970000280F381E02D3097B1F7C90108950F93DC
:102980001F93DF93CF9300D0CDB7DEB78091E703DD
:102990009091E8038E010F5F1F4F009719F40B5EB3
:1029A000134008C0081B190B1A8309830E94AC143A
:1029B000080F191F1A83098389819A810F900F903C
:1029C000CF91DF911F910F910895CF93DF938230C4
:1029D000910510F482E090E0E091E903F091EA03C0
:1029E00040E050E020E030E026C06081718168174F
:1029F0007907E0F06817790781F4828193812115C6
:102A0000310531F0D90113969C938E9312972BC008
:102A10009093EA038093E90326C04115510519F00C
:102A20006417750718F4AB01E901DF019F0172819A
:102A30006381E72FF62F3097C1F64115510501F15B
:102A4000481B590B4430510580F412968D919C918E
:102A50001397209719F09B838A8304C09093EA030D
:102A60008093E903FD01329646C0FD01E40FF51F96
:102A7000819391934250504011965C934E933BC08A
:102A80002091E7033091E8032115310541F42091AD
:102A90009E0130919F013093E8032093E70320913A
:102AA000A0013091A1012115310541F42DB73EB7A8
:102AB00040919C0150919D01241B350BE091E7034F
:102AC000F091E803E217F307A0F42E1B3F0B281741
:102AD000390778F0AC014E5F5F4F2417350748F097
:102AE0004E0F5F1F5093E8034093E7038193919348
:102AF00002C0E0E0F0E0CF01DF91CF910895CF93E5
:102B0000DF93009709F491C0FC013297138212827F
:102B10006091E9037091EA036115710581F42081E8
:102B20003181280F391F8091E7039091E8038217C4
:102B3000930799F5F093E803E093E70376C0DB0190
:102B400080E090E002C0CD01D901AE17BF0748F484
:102B500012962D913C91139721153105A1F7CD01C6
:102B600021C0B383A283EF01499159919E01240FA3
:102B7000351FA217B30779F42D913C911197240FBB
:102B8000351F2E5F3F4F3183208312962D913C914C
:102B9000139733832283009729F4F093EA03E09399
:102BA000E90343C0DC011396FC93EE9312974D9119
:102BB0005D91A40FB51FEA17FB0769F420813181ED
:102BC000240F351F2E5F3F4FEC013983288322816C
:102BD00033813B832A83E0E0F0E002C0FB01BC01CB
:102BE000DB0112968D919C9113970097B9F79B0189
:102BF0002E5F3F4F8D919C911197820F931F4091B3
:102C0000E7035091E8034817590779F4309729F4FE
:102C10001092EA031092E90302C01382128222503A
:102C200030403093E8032093E703DF91CF9108957C
:102C30001092920381E0809390031092910382E1BD
:102C400061E00E94F30483E161E00E94F304E9EB98
:102C5000F0E080818E7F808380818D7F808388E417
:102C60008093B80085E48093BC0008950F934132AF
:102C700008F047C0909192039923E1F792E0909376
:102C80009203009390039FEF9093930310926E032F
:102C900040936F03DB01E0E7F3E050E04E0F5F1F6E
:102CA00002C09D919193E417F507D9F710926D0337
:102CB00090916D03880F892B80936D038091910310
:102CC000813041F41092910380916D038093BB0099
:102CD00085EC01C085EE8093BC00222321F0809119
:102CE00092038230E1F3809193038F3F61F08091F2
:102CF0009303803251F080919303803341F483E059
:102D000007C081E005C080E003C082E001C084E02C
:102D10000F9108956132A0F420919203243091F430
:102D20006093B803DC01EBEBF3E070E06E0F7F1F04
:102D300002C08D918193E617F707D9F780E00895D7
:102D400081E0089582E00895882311F085EC01C0A8
:102D500085E88093BC00089585ED8093BC00809148
:102D6000BC0084FDFCCF10929203089585EC809303
:102D7000BC001092920308951F920F920FB60F920B
:102D800011242F933F934F935F936F937F938F9370
:102D90009F93AF93BF93EF93FF938091B90090E01F
:102DA000887F90708036910509F4CCC081369105FA
:102DB000E4F58832910509F47EC089329105C4F4A6
:102DC0008031910509F472C08131910544F4009776
:102DD00009F41DC18830910509F01DC167C0883113
:102DE000910509F468C08032910509F014C177C0DB
:102DF0008034910509F489C0813491054CF4803305
:102E0000910509F46EC08833910509F004C16DC0C5
:102E10008035910509F46DC08835910509F47AC0B3
:102E20008834910509F0F7C0F4C08839910509F498
:102E3000E4C089399105ECF48837910509F482C022
:102E4000893791054CF48836910509F47BC08037A9
:102E5000910509F0E0C076C08838910509F4CDC02D
:102E60008039910509F474C08038910509F0D3C008
:102E70006FC0803B910509F498C0813B91054CF4EB
:102E8000803A910509F476C0883A910509F0C3C0EB
:102E90008CC0803C910509F4B4C0883C910509F4CC
:102EA000B0C0883B910509F0B6C094C080916D0315
:102EB0008093BB0012C090916E0380916F039817AE
:102EC000A8F580916E03E82FF0E0E059FC4F908167
:102ED0009093BB008F5F80936E0381E08FC080E290
:102EE00001C080E38093930394C088E380939303AD
:102EF00059C080916E039091BB00E82FF0E0E0593B
:102F0000FC4F90838F5F80936E0390916E0380914E
:102F10006F0370C080916E039091BB00E82FF0E0CA
:102F2000E059FC4F90838F5F80936E0380919003F4
:102F3000882309F06EC081E08093910384EA809336
:102F4000BC0062C083E08093920310929403C5CFCB
:102F500080919403803208F050C080919403909146
:102F6000BB00E82FF0E0EB56FC4F90838F5F80931F
:102F70009403B3CF80919403803230F4E0919403B2
:102F8000F0E0EB56FC4F10820E94AC166091940367
:102F9000E091B503F091B60385E993E070E00995FF
:102FA000109294030E94B61636C084E08093920378
:102FB0001092B7031092B803E091B903F091BA03ED
:102FC00009958091B803882329F481E08093B803A0
:102FD0001092BB038091B703E82FF0E0E554FC4F5B
:102FE00090819093BB008F5F8093B7039091B7035C
:102FF0008091B803981708F470CF80E00E94A4165F
:103000000AC081E00E94A4161092920304C010929C
:1030100093030E94AC16FF91EF91BF91AF919F91E6
:103020008F917F916F915F914F913F912F910F9071
:103030000FBE0F901F9018958AE061E00E94F30484
:103040008AE061E00E94AE048CB580618CBD8CB5D5
:1030500080648CBD8DE061E00E94AE048BE061E095
:103060000E94AE0408950F938BED93E060E040E082
:1030700020E000E00E945E070F910895FC01DB0153
:1030800012962D913D914D915C911597228333833A
:1030900044835583178216820895E62FF72FDF01A8
:1030A0008D918823E9F780E090E020E030E020C0B7
:1030B0008F3F910509F09CF5DA01A20FB31F12961C
:1030C0008C9312972F5F3F4F80E090E011C0BC01BE
:1030D000660F771FB3E0880F991FBA95E1F7680F65
:1030E000791F8A2F992787FD9095C097860F971F84
:1030F000A191AA2331F0243031051CF4AE3239F706
:10310000D7CF8F3F910509F054F4243031053CF4BA
:10311000240F351FF901828321E030E002C020E056
:1031200030E0C90108956F927F928F929F92AF9283
:10313000BF92CF92DF92EF92FF920F931F93DF9394
:10314000CF9300D00F92CDB7DEB77C01A62E872E8D
:103150000E94EB03F701778366838701085F1F4FA7
:10316000B7016A5F7F4FC80142E050E00E94190E2C
:1031700081E090E09B838A8392E0E92EF12CEC0EB3
:10318000FD1EC801B70142E050E00E94190E80E028
:1031900091E09B838A83C801B70142E050E00E941E
:1031A000190E1B821A82C801B70142E050E00E944A
:1031B000190EC801B70142E050E00E94190EC80183
:1031C000B70142E050E00E94190ECA2CD82CB82C4E
:1031D0003E010894611C711C1FC0F5016F018191B3
:1031E000882311F08E32D1F746018A189B081814F3
:1031F000190474F48C2D8A198983C801B30141E044
:1032000050E00E94190EC801B501A4010E94190ED8
:1032100056010894A11CB11CF60180818823E9F6AF
:103220001982C801BE016F5F7F4F41E050E00E94EC
:10323000190EC12C81E0D82EDB82CA82C801B701E9
:1032400042E050E00E94190EDB82CA82C801B70139
:1032500042E050E00E94190E81E090E00F900F9044
:103260000F90CF91DF911F910F91FF90EF90DF9022
:10327000CF90BF90AF909F908F907F906F90089568
:103280002F923F924F925F926F927F928F929F9276
:10329000AF92BF92CF92DF92EF92FF920F931F9364
:1032A000DF93CF93CDB7DEB76B970FB6F894DEBF41
:1032B0000FBECDBF6C014B015B8F4A8F0E94EB03A9
:1032C0002B013C0158E0E52EF12CEC0CFD1CAA244E
:1032D000BB2412C00E94EB03641975098609970983
:1032E00086169706A806B90608F427C162E370E0BF
:1032F00080E090E00E941F04C7010E94C60D1816CE
:10330000190644F7F60182809380A480B5808E016F
:10331000085F1F4FC801B7010E941F0DF80182818D
:103320009381A481B58188169906AA06BB0609F087
:1033300007C1F601858D968D8533910509F000C191
:103340001EC18E01025F1F4FC701B8014CE050E063
:103350000E947A0DF8018281938198278927982706
:103360009B838A83F601468157812E853F854217CC
:10337000530711F497FD06C0C7010E944E0D2CEFB4
:103380003FEFE3C08F709270009731F0C7010E9449
:103390004E0D2BEF3FEFD9C0F80126803780322445
:1033A000232432242114310441F0CC24DD2458019B
:1033B0004E010894811C911C29C0C7010E944E0D2A
:1033C0002AEF3FEFC2C0C701B40141E050E00E94C4
:1033D0007A0D8981882321F409C0C7010E949C0DC0
:1033E0008981982F915099838823B9F789818823FF
:1033F00051F700E010E0C7010E949C0D0F5F1F4FC6
:1034000004301105C1F70894C11CD11CF501848159
:103410009581982789279827C816D906A0F2CC2429
:10342000DD244E010894811C911C44E0A42EB12C93
:10343000AC0EBD1E36E0432E512C4C0E5D1E22E01C
:10344000622E712C6C0E7D1EC701B40141E050E06C
:103450000E947A0D8981982F907C69F4882321F449
:103460000EC0C7010E949C0D8981982F91509983AD
:103470008823B9F704C0C7010E949C0D1982898175
:10348000882311F7C701B50142E050E00E947A0D90
:10349000C701B20142E050E00E947A0D04E010E062
:1034A000C7010E949C0D01501040D1F7C701B30124
:1034B00042E050E00E947A0D8C819D81F1E08030E5
:1034C0009F0719F000E010E023C08E819F8121E06A
:1034D00080309207B9F78A819B81E4E080309E07B3
:1034E00031F0C7010E944E0D27EF3FEF2EC06A8DCD
:1034F0007B8D6E5F7F4FC70144E050E00E947A0DE4
:1035000021E030E022C0C7010E949C0D0F5F1F4FD9
:103510008A819B819827892798270817190798F38C
:103520000894C11CD11CC214D30408F48DCFC70168
:103530000E944E0D26EF3FEF08C02FEF3FEF05C072
:103540002EEF3FEF02C02DEF3FEFC9016B960FB694
:10355000F894DEBF0FBECDBFCF91DF911F910F91C9
:10356000FF90EF90DF90CF90BF90AF909F908F90A3
:103570007F906F905F904F903F902F900895C7017C
:103580000E94340D8C309105F4F2DBCEAF92BF92E5
:10359000CF92DF92EF92FF920F931F93DF93CF931F
:1035A000CDB7DEB728970FB6F894DEBF0FBECDBFFC
:1035B0008C016B015A010E944D18009709F06AC0F6
:1035C000F80122813381448155818091E3039091F8
:1035D000E403A091E503B091E603281739074A07F1
:1035E0005B0709F45AC068E0E62EF12CE00EF11EEC
:1035F0000E94EB036F70707060507C4FC7010E9497
:10360000520E813009F04CC086EB91E09A83898399
:10361000F80182819381A481B5818B839C83AD83E2
:10362000BE83C701BE016F5F7F4F45E350E00E943C
:10363000340E9C01009731F1C801B6010E94931825
:103640000097F1F0C7010E942F0E9C01009731F402
:1036500019C0FFEF2F3F3F07A9F402C0CC24DD249F
:10366000C80168E873E1A5010E944019282F392F8D
:103670000894C11CD11C83E0C816D10419F0E9CF0D
:1036800020E030E0C7012F8338870E943D0E2F8154
:10369000388508C021E030E005C02EEF3FEF02C0C2
:1036A00020E030E0C90128960FB6F894DEBF0FBEC7
:1036B000CDBFCF91DF911F910F91FF90EF90DF90E1
:1036C000CF90BF90AF9008950F9381EE93E060E0AC
:1036D00040E020E000E00E945E070F910895F8941A
:1036E0000C94D01BDC0101C06D9341505040E0F7B9
:1036F0000895AA1BBB1B51E107C0AA1FBB1FA61739
:10370000B70710F0A61BB70B881F991F5A95A9F78A
:1037100080959095BC01CD010895A1E21A2EAA1BB7
:10372000BB1BFD010DC0AA1FBB1FEE1FFF1FA21771
:10373000B307E407F50720F0A21BB30BE40BF50B6E
:10374000661F771F881F991F1A9469F760957095F7
:10375000809590959B01AC01BD01CF01089597FB29
:10376000092E05260ED057FD04D0D7DF0AD0001C45
:1037700038F450954095309521953F4F4F4F5F4F0E
:103780000895F6F790958095709561957F4F8F4FCE
:103790009F4F0895EE0FFF1F0590F491E02D0994BF
:0437A000F894FFCFCB
:1037A40045746865726E657420496E697469616CEC
:1037B400697A65642E2E2E005374617274696E6783
:1037C4002045746865726E65742E2E2E004D792026
:1037D400495020616464726573733A20002E004876
:1037E400656C6C6F20576F726C64203300496E698E
:1037F4007469616C697A696E672E2E2E004E454F8E
:10380400504958454C53545249503A31323A393A56
:10381400494E4954004E454F504958454C53545213
:1038240049503A31323A393A5241494E424F57009F
:1038340053656E64696E673A200000048000EB03F0
:1038440000000000000087058F072B055A053E0580
:103854007C05000000001107000000001309E108C6
:10386400B308BC08D008E00800000000E90A710BA6
:10387400620B470B1E0BFF0A9E0CC00B420B590C2C
:10388400350C160B00000000380D190E340D9C0D7C
:10389400600D4E0D520E3D0E340E9E0E2F0EC60DB3
:0838A4007A0D170D1F0D300D08
:00000001FF
