:100000000C947D010C94A5010C94A5010C94A50100
:100010000C94A5010C94A5010C94A5010C94A501C8
:100020000C94A5010C94A5010C94E90B0C94B00A56
:100030000C94A5010C94A5010C94A5010C94A501A8
:100040000C94A5010C94A5010C94A5010C94A50198
:100050000C94A5010C94A5010C94A5010C944904E1
:100060000C94A5010C94A5010C94A5010C94A50178
:100070000C94A5010C94A5010C94A5010C94A50168
:100080000C94A5010C94A5010C94A5010C94A50158
:100090000C944A1B0C94A5010C94A5010C94A50189
:1000A0000C94A5010C94A5010C94A501000000007E
:1000B000240027002A002D00300000000000250049
:1000C00028002B002E003100000000002300260035
:1000D00029002C002F000404040404030405020278
:1000E00002020403020202020606060606060404D1
:1000F00002020204040802011040804010204080E7
:10010000408008020401804020100201108010206D
:1001100040400000000200080E0000030401000B34
:1001200000000000000000000000000000000000CF
:10013000070605040100080A0B0C0D09080B000254
:10014000020201000904000001020200000524006F
:100150001001052401010104240206052406000102
:100160000705810310004009040100020A00000095
:100170000705020240000007058302400000040357
:1001800009042203410072006400750069006E00DA
:100190006F0020004D006900630072006F002000B6
:1001A00020002000180341007200640075006900FF
:1001B0006E006F0020004C004C0043001201000252
:1001C00000000040412337800001010200011201BC
:1001D00000020200004041233780000101020001BB
:1001E00000C18081C105010902A1010901A10085A9
:1001F00001050919012903150025019503750181E0
:100200000295017505810305010930093109381589
:1002100081257F750895038106C0C005010906A1E7
:10022000018502050719E029E715002501750195EB
:10023000088102950175088103950675081500254A
:10024000650507190029658100C009040200010342
:100250000000000921010100012265000705840357
:1002600040000100000000000000002A2B280000D0
:10027000000000000000000000000000000000007E
:100280000000002C9EB4A0A1A2A434A6A7A5AE365F
:100290002D3738271E1F20212223242526B333B6CD
:1002A0002EB7B89F8485868788898A8B8C8D8E8FA0
:1002B000909192939495969798999A9B9C9D2F31A3
:1002C00030A3AD350405060708090A0B0C0D0E0F07
:1002D000101112131415161718191A1B1C1DAFB183
:1002E000B0B500009603100790076A0C060DA01029
:1002F0009E123813ED1AC11CF21F11241FBECFEF3E
:10030000DAE0DEBFCDBF11E0A0E0B1E0E0ECF0E468
:1003100002C005900D92A83DB107D9F713E0A8EDF2
:10032000B1E001C01D92A637B107E1F712E0CAEFB4
:10033000D2E004C02297FE010E945A20C43ED10799
:10034000C9F70E9483030C94FD1F0C940000EF92E8
:10035000FF920F93DF93CF93CDB7DEB76E970FB6B3
:10036000F894DEBF0FBECDBF7C0104960E94360F0D
:10037000C7014B960E946A07C70181960E946A07CF
:10038000C70187960E946A07C7018D960E946A0777
:10039000C701C3960E946A0784E061E00E9490054D
:1003A00084E061E00E94D505CE01019660EC48EA48
:1003B00021E00BE40E9474078B819C81AD81BE819A
:1003C000F701858F968FA78FB0A3CE01079660ECBB
:1003D00048EA21E001E00E94740789859A85AB858F
:1003E000BC85F70181A792A7A3A7B4A7CE010D965C
:1003F0006FEF4FEF2FEF00E00E9474078F85988911
:10040000A989BA89F70187A790ABA1ABB2ABCE019E
:10041000439660EC48EA21E00BEB0E9474078D895B
:100420009E89AF89B88DF70185AB96ABA7ABB0AF0E
:10043000CE01499664E044E024E004E00E947407A1
:100440008B8D9C8DAD8DBE8DF70183A394A3A5A349
:10045000B6A381E090E0948B838B81E392E060E02F
:1004600071E00E9408086E960FB6F894DEBF0FBECA
:10047000CDBFCF91DF910F91FF90EF900895CF9274
:10048000DF92EF92FF920F931F93DF93CF93CDB73D
:10049000DEB76E970FB6F894DEBF0FBECDBF8C01EE
:1004A00081E392E068E171E00E94080827E731E00B
:1004B0003A832983F801858D968DA78DB0A18B8312
:1004C0009C83AD83BE8338872F8383A194A1A5A18C
:1004D000B6A189879A87AB87BC873E872D8781A580
:1004E00092A5A3A5B4A58F87988BA98BBA8B3C8BBB
:1004F0002B8B87A590A9A1A9B2A98D8B9E8BAF8BC1
:10050000B88FB8016B5E7F4F8BEB92E0AE014F5F0F
:100510005F4F9E01295F3F4F8E01035F1F4FE3E155
:10052000EE2EF12CEC0EFD1E0E94D41268EE73E04C
:1005300080E090E00E94C50481E392E06DE271E00A
:100540000E94E8078E01055E1F4F9FE1E92EF12C06
:10055000EC0EFD1E89E1C82ED12CCC0EDD1EC6018D
:100560006BEB72E00E940D13F80161918F0181E342
:1005700092E04AE050E00E94840881E392E06DE35B
:1005800071E00E94E8070E151F0549F781E392E02C
:100590000E94F3076E960FB6F894DEBF0FBECDBF74
:1005A000CF91DF911F910F91FF90EF90DF90CF904F
:1005B0000895CF93DF93EC018B899C89813091055D
:1005C00029F4CE010E943F021C8A1B8ADF91CF9141
:1005D0000895EF92FF920F93DF93CF93CDB7DEB7DD
:1005E00063970FB6F894DEBF0FBECDBF7C010E94AB
:1005F000360FC7010F960E946A070E945318BC016C
:1006000081E392E04AE050E00E94C708CE010796DD
:100610000E94360F89859A85F701938382838B85A3
:100620009C85AD85BE8584839583A683B7838F859E
:100630009889A989BA8980879187A287B3878B898E
:100640008487CE01019660EC48EA21E00BEB0E9422
:1006500074078B819C81AD81BE81F701818B928B68
:10066000A38BB48B86EA9FE1968B858B108E178ABD
:10067000128E118E0E942C04F701E55EFE4F9183CD
:10068000808363960FB6F894DEBF0FBECDBFCF91C7
:10069000DF910F91FF90EF9008950F931F93CF93E9
:1006A000DF9383E992E00E94FB0CC1E3D2E0CE012C
:1006B00060E875E20E940F07CE016FE371E00E94CF
:1006C000080889E390E00E949F078C010E94A7011F
:1006D0000093D8011093D9018DE191E00E949F070A
:1006E0008C010E94E9020093DA011093DB01DF9193
:1006F000CF911F910F9108958091D8019091D901C8
:100700000E94D9020895CF93DF930E94EC048DE4F8
:1007100092E00E944A0C0E944D03C0E0D0E00E948B
:100720007C032097E1F30E940000F9CF0F938CED3A
:1007300091E060E040E020E000E00E9474070F914B
:100740000895CF92DF92EF92FF920F931F93DF9362
:10075000CF9300D0CDB7DEB76C01F62EE42E83E147
:1007600090E029837A830E949F078C016F2D7A8104
:100770004E2D29810E941D0DF60100831183E28216
:10078000F382C8010E946C0DF601808191810E9464
:100790007A0DF601808191816FEF0E943B0E0F90E0
:1007A0000F90CF91DF911F910F91FF90EF90DF900D
:1007B000CF900895EF92FF920F931F93CF93DF9303
:1007C000EC0184E090E00E94A2079983888384E88A
:1007D00090E00E94A207E82FF92FAF014C575F4F1E
:1007E00028EE33E011821082138212823087278331
:1007F000128611863B96E417F507A1F78A839B833F
:10080000888199816CE070E049E023E00E94A103B7
:10081000EE24FF2400E010E010C0EA81FB81EE0D21
:10082000FF1D0283138288819981918380830F5FEA
:100830001F4F8BE090E0E80EF91E888199810E949D
:10084000460490E00817190744F3DF91CF911F91F8
:100850000F91FF90EF9008950F931F938091E20105
:100860009091E301009759F484E090E00E949F0783
:100870008C010E94DA030093E2011093E30180915E
:10088000E2019091E3011F910F910895FC01838192
:1008900008951F920F920FB60F9211242F933F933A
:1008A0008F939F93AF93BF938091E8019091E9015B
:1008B000A091EA01B091EB013091EC010196A11DEC
:1008C000B11D232F2D5F2D3720F02D570196A11D2F
:1008D000B11D2093EC018093E8019093E901A0936E
:1008E000EA01B093EB018091E4019091E501A091C0
:1008F000E601B091E7010196A11DB11D8093E401CD
:100900009093E501A093E601B093E701BF91AF9109
:100910009F918F913F912F910F900FBE0F901F903D
:1009200018958FB7F8942091E8013091E901409132
:10093000EA015091EB018FBFB901CA0108959FB739
:10094000F8942091E4013091E5014091E601509145
:10095000E70186B5A89B06C08F3F21F02F5F3F4F70
:100960004F4F5F4F9FBF542F432F322F2227280F07
:10097000311D411D511D82E0220F331F441F551FA1
:100980008A95D1F7B901CA010895EF92FF920F93AA
:100990001F93CF93DF937B018C010E949F04EB0197
:1009A0000FC00E949F046C1B7D0B83E0683E78079C
:1009B00038F00894E108F10801091109C851DC4F29
:1009C000E114F1040105110561F7DF91CF911F9149
:1009D0000F91FF90EF900895789484B5826084BD64
:1009E00084B5816084BD85B5826085BD85B5816033
:1009F00085BDEEE6F0E0808181608083E1E8F0E093
:100A00001082808182608083808181608083E0E8C1
:100A1000F0E0808181608083E1E9F0E080818260A4
:100A20008083808181608083E0E9F0E08081816063
:100A30008083E1ECF0E0808184608083808182604B
:100A40008083808181608083E3ECF0E0808181603D
:100A50008083E0ECF0E0808182608083E2ECF0E073
:100A6000808181608083EAE7F0E080818460808318
:100A700080818260808380818160808380818068C2
:100A800080830895883071F1893068F4823031F1C3
:100A9000833020F4813009F042C01DC0833089F0DA
:100AA0008430E9F512C08B3059F18C3028F489304C
:100AB000E9F08A30A1F51EC08C3031F18E3079F525
:100AC00029C0809180008F7703C0809180008F7D46
:100AD00080938000089584B58F7702C084B58F7DA0
:100AE00084BD0895809190008F7707C08091900019
:100AF0008F7D03C080919000877F80939000089540
:100B00008091C0008F7703C08091C0008F7D80935B
:100B1000C00008958091C200877F8093C20008952D
:100B2000EF92FF92CF93DF9390E0FC01EC50FF4FE8
:100B300044918A529F4FFC018491882389F190E06F
:100B4000880F991FFC01E455FF4F25913491D9017D
:100B500086549F4FFC0125913491E22EE7017E01DE
:100B6000F32EE701662349F49FB7F8948C914095E2
:100B700084238C93888184230BC0623059F49FB7FF
:100B8000F8948C91242F209582238C938881842B38
:100B9000888305C09FB7F8948C91842B8C939FBF5A
:100BA000DF91CF91FF90EF9008950F931F93DF9304
:100BB000CF930F92CDB7DEB7282F30E0F901EE5E6C
:100BC000FE4F8491F901EC50FF4F14912A523F4F90
:100BD000F90104910023D9F0882321F069830E9450
:100BE00042056981E02FF0E0EE0FFF1FE654FF4F52
:100BF00085919491DC019FB7F894662321F48C9140
:100C00001095812302C08C91812B8C939FBF0F90F4
:100C1000CF91DF911F910F91089520912D02309176
:100C20002E0280912F0290913002281B390B2F73D6
:100C30003070C901089520912D0230912E028091CB
:100C40002F02909130022817390749F0E0912F02C6
:100C5000F0913002E351FE4F208130E002C02FEFCF
:100C60003FEFC901089520912D0230912E0280910D
:100C70002F029091300228173907A1F0E0912F023E
:100C8000F0913002E351FE4F208180912F0290912C
:100C9000300201968F7390709093300280932F02F0
:100CA00030E002C02FEF3FEFC90108950F931F936B
:100CB000DF93CF930F92CDB7DEB78C01698380911C
:100CC0005601882369F083E0BE016F5F7F4F41E0EA
:100CD00050E00E9489091816190614F49C0107C0F7
:100CE00081E090E0F8019383828320E030E0C90145
:100CF0000F90CF91DF911F910F91089583E00E9493
:100D0000DF0B0895CF93DF9312C082E00E94560953
:100D10002FEF8F3F9207C9F0E0912D02F0912E0244
:100D2000E351FE4F8083D0932E02C0932D02C091D9
:100D30002D02D0912E022196CF73D07080912F0278
:100D400090913002C817D90701F7DF91CF9108952C
:100D5000FC0180818E5F808380E86CE371E042E477
:100D600050E00E94370A0895FC0181819081913AF8
:100D700059F4813209F04FC080E06FE471E047E040
:100D800050E00E94370A45C0913209F044C08032D9
:100D900039F48FE491E067E070E00E947D0A39C089
:100DA000823209F038C082818093560180914F01D0
:100DB00090915001A0915101B0915201803B24E0EB
:100DC000920720E0A20720E0B20739F58091560192
:100DD00080FD12C087E797E7909301088093000891
:100DE0002BE088E190E00FB6F894A895809360001E
:100DF0000FBE209360000DC088E10FB6F894809379
:100E00006000109260000FBEA89510920108109229
:100E1000000881E0089580E0089581E00895089534
:100E2000109234021092330288EE93E0A0E0B0E01A
:100E30008093350290933602A0933702B093380224
:100E400085E691E0909332028093310208958F926B
:100E50009F92AF92BF92CF92DF92EF92FF920F9349
:100E60001F93CF93DF934C017B0182E0A82EB12C1E
:100E7000A80CB91CC0E0D0E0CC24DD24F5016191C0
:100E80005F01C7014AE050E00E9484088C01C7015D
:100E90006EE20E94EB07080F191FC00ED11E2196AB
:100EA000C330D10559F7C701F40165814AE050E02C
:100EB0000E948408C80ED91EC601DF91CF911F91F0
:100EC0000F91FF90EF90DF90CF90BF90AF909F90E9
:100ED0008F900895FC0187E791E0918380831282CF
:100EE00013821482158208950F93FC0187E791E025
:100EF0009183808362834383248305830F910895C4
:100F0000CF93DF93FC01EB0188819981AA81BB819A
:100F100082839383A483B583CF01DF91CF9108951A
:100F200087E791E09093400280933F021092410244
:100F300010924202109243021092440208950E94BD
:100F4000791808950E9479180895CF92DF92EF9250
:100F5000FF920F931F93CF93DF936C017B018A0164
:100F6000C0E0D0E00FC0D7016D917D01D601ED91B9
:100F7000FC910190F081E02DC6010995C80FD91FA1
:100F8000015010400115110571F7CE01DF91CF918D
:100F90001F910F91FF90EF90DF90CF900895611512
:100FA000710591F0DB010D900020E9F7AD01415092
:100FB0005040461B570BDC01ED91FC910280F38100
:100FC000E02D09959C0102C020E030E0C9010895A0
:100FD0000E94CF070895DC01ED91FC910190F08112
:100FE000E02D099508950F931F93CF93DF93EC01A4
:100FF0006DE00E94EB078C01CE016AE00E94EB07D6
:10100000080F191FC801DF91CF911F910F9108950B
:101010000F931F93CF93DF93EC010E94CF078C01B6
:10102000CE010E94F307080F191FC801DF91CF916D
:101030001F910F9108958F929F92AF92BF92CF927E
:10104000DF92EF92FF920F931F93DF93CF93CDB771
:10105000DEB7A1970FB6F894DEBF0FBECDBF6C010F
:10106000042FE52FCB01122F19A2223008F41AE029
:1010700021E2E22EF12CEC0EFD1E812E9924AA24F1
:10108000BB2403C0022FE32FCA01602F7E2FA501CE
:1010900094010E941B20129F802D1124081B08948C
:1010A000E108F1080A3014F4005D01C0095CF701A1
:1010B0000083211531054105510521F7C601B7010E
:1010C0000E94CF07A1960FB6F894DEBF0FBECDBF2A
:1010D000CF91DF911F910F91FF90EF90DF90CF9014
:1010E000BF90AF909F908F9008952115310549F4DE
:1010F000DC01ED91FC910190F081E02D642F0995C8
:1011000008950E941B0808959A01462F50E060E060
:1011100070E00E9475080895CF92DF92EF92FF92DF
:101120000F931F93CF93DF93EC017A018B0121156D
:10113000310541F4E881F9810190F081E02D642FBF
:1011400009951AC02A303105A9F477FF12C06DE263
:101150000E94EB076C0144275527BA014E195F091D
:10116000600B710BCE012AE00E941B08C80ED91E2D
:1011700004C02AE00E941B086C01C601DF91CF91D8
:101180001F910F91FF90EF90DF90CF9008950F93F4
:101190001F93CF93DF93EC019A01CB01AC0166273B
:1011A00057FD6095762FCE010E948C088C01CE01F0
:1011B0000E94F307080F191FC801DF91CF911F91FB
:1011C0000F9108958091E80080FFFCCF0895FC0105
:1011D00004C08091F100819361506623D1F7289A71
:1011E00084E68093460208952FB7FC012083F8948B
:1011F00067706093E9000895DF93CF930F92CDB7A6
:10120000DEB7682FCE0101960E94F4088091F200AB
:1012100099819FBF0F90CF91DF910895FF920F9317
:101220001F93DF93CF9300D0CDB7DEB7282FF62ED4
:101230008A01809147028823C9F057FF22C016C057
:10124000289A209346023091F1003193E817F9076C
:10125000B9F70115110539F08091F200882319F4CE
:101260008BE68093E80089818FBF02C00FEF1FEFEC
:10127000C8010F900F90CF91DF911F910F91FF90B8
:101280000895CE010196622F7A830E94F40880911E
:10129000F20090E07A81801791070CF48C01EF2D19
:1012A000F72FCF01800F911D24E6D0CFDF93CF938E
:1012B0000F92CDB7DEB7BE016F5F7F4F41E050E0C8
:1012C0000E940E098130910519F4298130E002C095
:1012D0002FEF3FEFC9010F90CF91DF910895DF937A
:1012E000CF930F92CDB7DEB7682FCE0101960E9443
:1012F000F4088091E80085FF05C09091F20080E439
:10130000891B01C080E099819FBF0F90CF91DF9131
:1013100008952F923F924F925F926F927F928F9299
:101320009F92AF92BF92CF92DF92EF92FF920F9374
:101330001F93DF93CF930F92CDB7DEB7D82EC42E75
:10134000A52E80914702882309F46FC0062F172F1E
:10135000E42EF52E2AEFB22E3E010894611C711C7A
:101360002D2C332490E2492E512C422053208AE325
:10137000882E80E4282233244DC08D2D0E946F09D1
:10138000982E882351F4BA9409F44FC061E070E0BC
:1013900080E090E00E94C5043DC090E0E816F906A8
:1013A0000CF49E2CE918F108C3016D2D0E94F4087D
:1013B0004114510439F003C01092F1009A9499201D
:1013C000D9F71AC0D7FC03C0892DF80111C0892DA7
:1013D000980107C0F9012F5F3F4FE491E093F100BE
:1013E00081508823B9F706C091919093F100815004
:1013F0008823D1F7090D111D8091E80085FF06C0F3
:10140000E114F10429F42114310411F08092E80070
:1014100089818FBFE114F10409F0AFCF5D9A84E6B2
:10142000809345022C2D3A2D02C02FEF3FEFC901CA
:101430000F90CF91DF911F910F91FF90EF90DF9070
:10144000CF90BF90AF909F908F907F906F905F9064
:101450004F903F902F9008951092E900109249020A
:101460001092480290934B0280934A0208951F9372
:10147000242F352FE62FF72F9EEF34C087FF02C0B1
:10148000149101C01081A0914802B091490260916D
:101490004A0270914B02A617B707BCF46091E800AE
:1014A0006570E1F36091E80062FD22C01093F100E5
:1014B00060914802709149026F5F7F4F6F73707047
:1014C0006115710511F49093E800609148027091E4
:1014D00049026F5F7F4F7093490260934802215029
:1014E000304031962115310549F6242F352F02C0A1
:1014F0002FEF3FEFC9011F9108951F93DF93CF9303
:101500000F92CDB7DEB7162F2091E80022FFFCCF57
:10151000612F79830E94E7088BEF8093E800812F89
:101520007981972F0F90CF91DF911F9108950F939D
:101530001F93DF93CF930F92CDB7DEB719828E0141
:101540000F5F1F4FC8010E94A806C8010E94C8195A
:10155000898190E00F90CF91DF911F910F910895B5
:101560001F920F920FB60F921124EF92FF920F93DA
:101570001F932F933F934F935F936F937F938F931B
:101580009F93AF93BF93EF93FF93DF93CF93CDB729
:10159000DEB76297DEBFCDBF1092E9008091E80010
:1015A00083FFF3C0CE01019668E00E94E70882EF56
:1015B0008093E800098107FF03C00E94E20803C08E
:1015C0008EEF8093E800802F90E09C0120763070B1
:1015D0002115310509F0BEC02A81222329F4109279
:1015E000F1001092F100CAC0213009F4C7C02330C5
:1015F00009F4C4C0253039F40E94E2088B81806868
:101600008093E300BBC0263009F076C02C810F81A7
:101610001885223081F580E090E02A8B0E942C0A08
:101620000E94970A99E039E0E32EF12CEC0EFD1EA2
:10163000F701392F11923A95E9F799872A892A8774
:1016400091E09E8790E8988B9AEF998B20914802C1
:1016500030914902275F3F4F3C872B878D87C80118
:101660000E942C0A80E0B70149E050E00E94370A4E
:101670000E94970A83C0C8012A8B0E942C0A2A89DB
:10168000223241F482E290E00E94D419009709F0DE
:1016900075C078C0213079F48F81988588309105A4
:1016A00019F481E080934C0280914C028823B9F0B8
:1016B0006EEC71E016C0233009F064C08B81882382
:1016C00019F46EE771E00DC0823019F462E871E040
:1016D00008C0813009F056C064EA71E002C06CEBCA
:1016E00071E06115710509F44DC0FB01449180E87A
:1016F00050E00E94370A42C0273009F443C0283026
:1017000021F481E08093F10039C02930B9F583706C
:1017100090700097B9F580E090E031E026E3482F23
:101720004F5F4093E9003093EB000196FC01E052DB
:10173000FE4FE491E093EC002093ED00843091059E
:1017400071F78EE78093EA001092EA008B81809314
:10175000470214C08F8198850E942C0A8D818823AE
:1017600029F4CE0101960E94B40606C0823051F4DD
:10177000CE0101960E94FD19882321F08EEF8093FF
:10178000E80003C081E28093EB006296DEBFCDBF2C
:10179000CF91DF91FF91EF91BF91AF919F918F9189
:1017A0007F916F915F914F913F912F911F910F9179
:1017B000FF90EF900F900FBE0F901F9018958093A1
:1017C000E9008091F200882319F08AE38093E80011
:1017D00008951F920F920FB60F9211242F933F93EB
:1017E0004F935F936F937F938F939F93AF93BF9329
:1017F000EF93FF938091E1001092E10083FF0FC00F
:101800001092E90091E09093EB001092EC0092E3CB
:101810009093ED001092470298E09093F00082FFC1
:1018200028C083E00E94DF0B82E00E94FC0888232E
:1018300021F081E392E00E94820680914502882394
:1018400051F080914502815080934502809145027C
:10185000882309F45D9880914602882351F0809195
:10186000460281508093460280914602882309F403
:101870002898FF91EF91BF91AF919F918F917F91A8
:101880006F915F914F913F912F910F900FBE0F90ED
:101890001F9018951092470281E08093D70080EA4C
:1018A0008093D80082E189BD89B580FFFDCF61E0DA
:1018B00070E080E090E00E94C50480E98093D80049
:1018C0008CE08093E2001092E000559A209A5D9897
:1018D00028980895089520916F0230E080916E025B
:1018E000281B3109C901089580916E0290916F0201
:1018F000891750F4E82FF0E0E25BFD4F208130E0E3
:101900008F5F80936E0202C02FEF3FEFC9010895F1
:10191000E0916E0280916F02E81730F4F0E0E25B34
:10192000FD4F208130E002C02FEF3FEFC901089545
:101930000895CF92DF92EF92FF920F931F93CF9370
:10194000DF936C01CB01EA01209192022223B1F0D6
:10195000E62EF92E00E010E00DC0D7016D917D015B
:10196000D601ED91FC910190F081E02DC601099521
:101970000F5F1F4F0C171D0780F303C0642F0E94D9
:10198000181BCE01DF91CF911F910F91FF90EF9027
:10199000DF90CF900895DF93CF930F92CDB7DEB74E
:1019A0006983209192022223D1F02091910220326A
:1019B00040F021E030E0FC013383228320E030E07E
:1019C00015C080919002E82FF0E0E059FD4F998119
:1019D00090838F5F809390028093910205C0CE0127
:1019E000019661E00E94181B21E030E0C9010F90D0
:1019F000CF91DF91089510926E0210926F021092B3
:101A00009002109291020E94FA1A08951092960282
:101A10001092950288EE93E0A0E0B0E080939702E8
:101A200090939802A0939902B0939A028DE791E067
:101A300090939402809393020895FF920F931F93C3
:101A4000CF93DF93EC01F22E48837A8369838B0175
:101A5000000F111F060F171F0B831C831D822B877E
:101A60001C861D861E861F8650E0FA01EA52FF4F33
:101A7000E491F0E0EE0FFF1FE654FF4F8591949143
:101A8000888B998B4C505F4FFA0144914A8BC80167
:101A90000E9479189F838E83009729F060E070E0A0
:101AA000A8010E940020F0FE04C081E0888719860A
:101AB0000BC0F2FE06C081E0888782E089871A8623
:101AC00005C0188681E0898782E08A87DF91CF91FF
:101AD0001F910F91FF900895CF93DF93EC018881C0
:101AE00061E00E949005888160E00E94D505DF9149
:101AF000CF910895EF92FF920F931F93DF93CF93AF
:101B0000CDB7DEB727970FB6F894DEBF0FBECDBFB7
:101B10008C01DC0116968D919C911797009709F422
:101B20009DC00E949F04F801248535854685578510
:101B3000621B730B840B950B623371058105910554
:101B400080F3F894D80113968D919C9114979F83FC
:101B50008E831696ED90FC901797F70181917F0187
:101B600089831B969C911B9750960D90BC91A02D3C
:101B7000F801828991FF2EC09C91982B9A839C91A9
:101B8000809589238B838B818D8388E08C835A8118
:101B90006B8149813C812D818E819F81F7015C930E
:101BA00047FD252F3A952C93262F39F0441F00C06E
:101BB00000006C93000000C0F2CF38E041916C93BC
:101BC0000000019761F7F801B18BA08B49833C833A
:101BD0002D8338C09C91982B9A839C918095892362
:101BE0008B838B818C8388E08D835A816B814981C3
:101BF0003D812C818E819F81F7015C9347FD252FCC
:101C000000C000C02C9300C000C000C000C000C0D5
:101C10006C930000262F3A9541F0441F000000C04D
:101C200000C000C000C000C0E8CF38E0419100C053
:101C30006C9300C0019709F7F801B18BA08B498321
:101C40003D832C839F838E8378940E949F04D801C8
:101C50001C966D937D938D939C931F9727960FB63B
:101C6000F894DEBF0FBECDBFCF91DF911F910F91D2
:101C7000FF90EF900895FF920F931F93CF93DF9300
:101C8000EC01F62EF3942D81F21689F10E811F815D
:101C90002150A9F06F3F51F430E040E050E06FEF89
:101CA0007FEF80E090E00E943D200BC09F2D80E000
:101CB0000197622F70E00E9407209B0102C020E084
:101CC00030E080E090E00DC0F801608170E0269F78
:101CD000A001279F500D369F500D112451938F0165
:101CE00001964B815C818417950770F3FD82DF912B
:101CF000CF911F910F91FF900895DF93CF930F9293
:101D0000CDB7DEB76983DC01ED91FC910280F381F0
:101D1000E02DBE016F5F7F4F41E050E009950F90CD
:101D2000CF91DF910895CF93DF93EC0107C0E88155
:101D3000F9810680F781E02DCE010995E881F981CE
:101D40000480F581E02DCE010995009781F7DF91A0
:101D5000CF91089521E0FC018485883009F420E0CA
:101D6000822F08950F931F93DF93CF930F92CDB7D8
:101D7000DEB78C01DC01ED91FC910480F581E02D52
:101D80000995009751F0F8018485BE016F5F7F4F80
:101D90000E94EF14298130E002C02FEF3FEFC9010C
:101DA0000F90CF91DF911F910F910895FC018485D1
:101DB0000E94A7140895DF93CF930F92CDB7DEB79B
:101DC000FC018485BE016F5F7F4F41E050E00E94BF
:101DD000A714181619061CF4298130E002C02FEF51
:101DE0003FEFC9010F90CF91DF910895FC01648509
:101DF000683039F08BEC92E00E942E17282F392F93
:101E000002C020E030E0C9010895EF92FF920F93E5
:101E10001F93CF93DF938C01EA01FC018485883006
:101E200019F481E090E007C00E945414009739F43F
:101E300081E090E0F80193838283C0E0D0E0CE019E
:101E4000DF91CF911F910F91FF90EF90089590E057
:101E5000805C9F4F982F8827860F971F0E947716C8
:101E6000089563E070E00E94270F0895FC0113823B
:101E7000128228EE33E040E050E02483358346832D
:101E800057838DE891E09183808388E0848708956B
:101E9000CF93DF93EC010E946A07CE0108960E945F
:101EA0001C12DF91CF9108956F927F928F929F9233
:101EB000AF92BF92CF92DF92EF92FF920F931F9358
:101EC000DF93CF93CDB7DEB7E5970FB6F894DEBFBB
:101ED0000FBECDBF5C014B013A0133E1E32EF12C83
:101EE000EC0EFD1EC7010E94480F6E010894C11C34
:101EF000D11CC6010E946A078E01095F1F4FC801ED
:101F00006BEB72E00E942713C701B8010E94CC1C42
:101F1000C701B401A6010E94541F9C0181309105A4
:101F2000C9F4D501ED91FC910484F585E02D87E796
:101F300091E09E878D878B819C81AD81BE818F874B
:101F4000988BA98BBA8BC501BE01635F7F4FA3013C
:101F500009959C01C901E5960FB6F894DEBF0FBE46
:101F6000CDBFCF91DF911F910F91FF90EF90DF9048
:101F7000CF90BF90AF909F908F907F906F9008957B
:101F8000FC018485883019F00E94310F089580E0AB
:101F90000895CF93DF93EC018C858830D1F0CE018A
:101FA0000E94C00F843181F0882371F0883161F084
:101FB0008C3161F4E881F9810480F581E02DCE0156
:101FC000099521E0009719F420E001C021E0822F5B
:101FD00001C080E0DF91CF910895EF92FF920F93BF
:101FE0001F93CF93DF93EC018C858830A1F10E9481
:101FF0004C140E9491047B018C01CE010E94C00F01
:10200000882319F10E9491046E197F09800B910BAE
:10201000683E23E0720720E0820720E09207A8F4E0
:1020200061E070E080E090E00E94C504E6CF8C851E
:102030000E94C813EC85F0E0EE0FFF1FE555FD4F41
:102040001182108288E08C8706C0CE010E94C00FEA
:10205000882381F3ECCFDF91CF911F910F91FF90F7
:10206000EF900895BF92CF92DF92EF92FF920F937D
:102070001F93CF93DF93EC018B016A018C8588302D
:1020800009F051C0EE24FF24BE2C8E2D0E94310F8A
:10209000882321F0883111F08C3111F4BC8607C0FF
:1020A0000894E11CF11C88E0E816F10469F78C85BE
:1020B0008830C9F120915701309158012F5F3F4F6F
:1020C00030935801209357012115310531F420E058
:1020D00034E03093580120935701409157015091BB
:1020E000580161E020E00E94D713B8016E5F7F4F76
:1020F0008C85A6010E94161409C061E070E080E0A2
:1021000090E00E94C504CE010E94C00F882319F4FC
:1021100088E08C8708C0CE010E94C00F873169F724
:1021200021E030E002C020E030E0C901DF91CF9132
:102130001F910F91FF90EF90DF90CF90BF90089587
:102140000F938FE992E060E040E020E000E00E9421
:1021500074070F910895DC01ED91FC91008CF18DD5
:10216000E02D09950895FC0127E731E031832083B4
:10217000DB0151962D913D914D915C9154972283B5
:102180003383448355830895FC0185899689089596
:10219000FC01818D928D0895DF93CF930F92CDB77F
:1021A000DEB76983DC01ED91FC910280F381E02DC3
:1021B000BE016F5F7F4F41E050E009950F90CF91D6
:1021C000DF910895CF93DF93EC0107C0E881F98197
:1021D0000680F781E02DCE010995898D9A8D0097B3
:1021E000A9F7DF91CF910895DF93CF930F92CDB7E9
:1021F000DEB7FC01818D928D009749F08485BE0188
:102200006F5F7F4F0E94EF14298130E002C02FEFF3
:102210003FEFC9010F90CF91DF910895CF93DF93E6
:10222000EC01298D3A8D21153105A1F04217530794
:1022300018F08C85A90101C08C850E94A7149C010F
:10224000181619063CF4898D9A8D821B930B9A8F70
:10225000898F02C02FEF3FEFC901DF91CF91089521
:102260000F931F93DF93CF930F92CDB7DEB78C01FF
:10227000FC01818D928D0097A1F08485BE016F5F76
:102280007F4F41E050E00E94A714181619064CF445
:10229000F801818D928D0197928F818F298130E095
:1022A00002C02FEF3FEFC9010F90CF91DF911F9137
:1022B0000F910895EF92FF920F931F93DF93CF93A7
:1022C000CDB7DEB728970FB6F894DEBF0FBECDBFEF
:1022D0008C01DC01ED91FC910284F385E02D0995E0
:1022E0008BEC92E0F80164850E942E17009729F18B
:1022F000D8011C968C917E010894E11CF11CB70159
:1023000048E050E00E94A7149C0118161906BCF47E
:10231000C8010F96B7010E9480079D8180E02E8141
:10232000820F911DF801968B858B3F8120E0888577
:10233000280F311D328F218F02C020E030E0C9010B
:1023400028960FB6F894DEBF0FBECDBFCF91DF91B8
:102350001F910F91FF90EF900895CF93DF93EC01C1
:10236000FB019A016F89788D8C85AF010E94FE1464
:102370009C018F89988D820F931F988F8F8BC90135
:10238000DF91CF910895FC0184850E945A1508952C
:10239000FC01108E178A6E5F7F4F84850E94341572
:1023A0000895CF93DF93EC018C85883061F00E9413
:1023B000C813EC85F0E0EE0FFF1FE555FD4F1182CD
:1023C000108288E08C87DF91CF910895DF92EF92A1
:1023D000FF920F931F93CF93DF93EC018B018C85BA
:1023E000883009F5EE24FF24DE2C8E2D0E94310F5B
:1023F000882311F0883111F4DC8607C00894E11CB1
:10240000F11C88E0E816F10479F78C85883059F0E2
:102410001E870D871A8E198E62E0A80120E00E94A7
:10242000D71381E001C080E0DF91CF911F910F9120
:10243000FF90EF90DF900895FC011382128228EE46
:1024400033E040E050E0248335834683578389EAB4
:1024500091E09183808388E08487CF010F960E946A
:102460006A0708956F927F928F929F92AF92BF9268
:10247000CF92DF92EF92FF920F931F93DF93CF9350
:10248000CDB7DEB7E5970FB6F894DEBF0FBECDBF70
:102490005C014B013A0133E1E32EF12CEC0EFD1E01
:1024A000C7010E94480F6E010894C11CD11CC601CF
:1024B0000E946A078E01095F1F4FC8016BEB72E033
:1024C0000E942713C701B8010E94CC1CC701B401A8
:1024D000A6010E94541F9C0181309105C9F4D501C9
:1024E000ED91FC910088F189E02D87E791E09E87CE
:1024F0008D878B819C81AD81BE818F87988BA98BC5
:10250000BA8BC501BE01635F7F4FA30109959C0192
:10251000C901E5960FB6F894DEBF0FBECDBFCF91CF
:10252000DF911F910F91FF90EF90DF90CF90BF90C0
:10253000AF909F908F907F906F9008950F9385EA52
:1025400092E060E040E020E000E00E9474070F911C
:102550000895BC0181E090E044E050E00E94341610
:102560000895BC0185E090E044E050E00E943416FC
:102570000895BC0189E090E046E050E00E943416E6
:102580000895BC018FE090E044E050E00E943416D2
:1025900008950E94C1120895BC018FE090E044E0CC
:1025A00050E00E94841708958F929F92AF92BF923D
:1025B000CF92DF92EF92FF920F931F93CF93DF930F
:1025C0004C015B016A01E9018BEC92E00E94CC15A1
:1025D000C5010E94B912C60102960E94C912C80123
:1025E00002960E94A912C70102960E94B1128A8126
:1025F0009B81AC81BD81F40182839383A483B583E5
:10260000DF91CF911F910F91FF90EF90DF90CF90CE
:10261000BF90AF909F908F900895EF92FF920F938D
:102620001F93CF93DF938C01E82EE7017E01F12EFB
:10263000C7010E946A07C70102960E94CC12C80116
:10264000DF91CF911F910F91FF90EF900895FC01C2
:1026500027E731E031832083DB0112962D913D91F4
:102660004D915C911597228333834483558308955C
:102670000F9383EC92E060E040E020E000E00E94F5
:1026800074078BEB92E00E946A070F91089562E055
:1026900070E00E94270F0895EF92FF921F93CF934F
:1026A000DF93182F68E270E00E94270F80E0EC01B2
:1026B000812F69E270E00E94270FC80FD11DCE0163
:1026C000DF91CF911F91FF90EF90089590E0805C93
:1026D0009F4F982F8827860F971F642F0E948A1577
:1026E0000895462F62E070E00E94661308950F93EC
:1026F0001F93182F062F472F60E170E00E9466138A
:10270000812F61E170E0402F0E9466131F910F91AD
:1027100008950F931F93182F062F472F68E270E03C
:102720000E946613812F69E270E0402F0E946613B9
:102730001F910F910895462F60E070E00E9466138C
:1027400008950F931F93182F062F472F64E070E012
:102750000E946613812F65E070E0402F0E9466138F
:102760001F910F910895FB01BA0190E0805C9F4F8B
:10277000982F88278E0F9F1FA9010E943416089555
:10278000AB016CE070E024E030E00E94B3130895E8
:102790001F93182F8BEC92E0612F40E150E00E94D4
:1027A0003318812F6FEF0E9471131F910895EF92DC
:1027B000FF921F93DF93CF9300D0CDB7DEB7182FD2
:1027C0007A01862F8150853040F5812F2A836983D5
:1027D0000E94C8132A816981622B812F0E949B135A
:1027E000E114F10419F0812FB7010CC02091C90246
:1027F0003091CA022F5F3F4F3093CA022093C90223
:10280000812FB9010E94A1138BEC92E0612F41E06E
:1028100050E00E94331881E001C080E00F900F90DB
:10282000CF91DF911F91FF90EF9008951F93CF9369
:10283000DF93182FFB01EA0180818F3F51F48181E2
:102840008F3F91F482818F3F79F483818F3F61F4D0
:102850001EC0882349F48181882331F48281882332
:1028600019F48381882399F0209789F0812FBF0183
:102870000E94C013812FBE010E9477138BEC92E05F
:10288000612F44E050E00E94331881E001C080E0F5
:10289000DF91CF911F910895682F8BEC92E048E073
:1028A00050E00E9433180895CF92DF92EF92FF928A
:1028B0001F93CF93DF93182F7B01C42EE6016E0187
:1028C000D52EE60138E0C130D30710F0C0E0D8E0E3
:1028D0008BEC92E0612F0E9466176C01812F0E94A1
:1028E000310F873111F08C3121F4CC16DD0680F3E5
:1028F00002C0C0E0D0E08BEC92E0612FA7019E0106
:102900000E9408178BEC92E0612F40E250E00E9499
:1029100033180BC0812F0E94310F882331F4812F8F
:102920000E94C813C0E0D0E009C0812F0E94471365
:1029300084FFF0CF812F60E10E947113CE01DF91FF
:10294000CF911F91FF90EF90DF90CF900895AF92BD
:10295000BF92CF92DF92EF92FF920F931F93CF938C
:10296000DF93F82E6B018A018BEC92E06F2D0E94B1
:102970002E17A82EE5015E01B92EE501209751F42E
:102980008F2D0E94310F8431D9F08823C9F08C310A
:10299000B9F022C00A151B050CF4E8011C161D062F
:1029A0007CF48BEC92E06F2DA6019E0100E00E946A
:1029B00002188BEC92E06F2D40E450E00E94331837
:1029C000CE01DF91CF911F910F91FF90EF90DF909B
:1029D000CF90BF90AF900895CFEFDFEFF1CF0F937F
:1029E000282FAB018BEC92E0622F21E030E001E078
:1029F0000E94021881E090E00F9108958F929F92BB
:102A0000AF92BF92CF92DF92EF92FF920F931F93FC
:102A1000CF93DF93182F6B015A01E9018BEC92E001
:102A2000612F0E9466178C179D0738F48BEC92E09B
:102A3000612F0E9466177C0101C07E018BEC92E041
:102A4000612FA601950187010E94B816C701DF9189
:102A5000CF911F910F91FF90EF90DF90CF90BF909B
:102A6000AF909F908F9008951F93CF93DF93182F6F
:102A7000FB01EA018081882349F48181882331F4B4
:102A80008281882319F48381882369F0209759F083
:102A9000812FBF010E94C013812FBE010E947713B6
:102AA00021E030E002C020E030E0C901DF91CF91A9
:102AB0001F9108951F93182F8BEC92E0612F40E235
:102AC00050E00E9433180CC0812F0E94471383FFEF
:102AD00007C0812F68E10E94711320E030E00BC035
:102AE000812F0E94471384FFEFCF812F60E10E9466
:102AF000711321E030E0C9011F9108958EBD0DB41E
:102B000007FEFDCF8EB50895209A08952898089560
:102B1000289A08951F93DF93CF9300D0CDB7DEB7E7
:102B2000182F6A8399830E94861589810E947E15D9
:102B3000812F0E947E1580E80E947E1581E00E9410
:102B40007E156A81862F0E947E150E94881581E07D
:102B50000F900F90CF91DF911F910895462F61E064
:102B600070E00E94661308950F931F93182F062F8D
:102B7000472F64E270E00E946613812F65E270E0E7
:102B8000402F0E9466131F910F910895682F80E0D7
:102B900090E00E948A1508950F931F93CF93DF93BF
:102BA000EC016CE271E080E090E00E94C5040E94BC
:102BB000AA1C0E94841580E80E94C6150FE110E44B
:102BC000C80162E00E948A15C801019762E00E9474
:102BD0008A1500501F4F88E40F31180789F780E0ED
:102BE00090E89983888380E090EC998B888B80E0D3
:102BF00098E89B838A8380E098EC9B8B8A8B80E0AB
:102C000090E99D838C8380E090ED9D8B8C8B80E0A0
:102C100098E99F838E8380E098ED9F8B8E8B80E078
:102C200090EA9987888780E090EE998F888F80E07E
:102C300098EA9B878A8780E098EE9B8F8A8F80E056
:102C400090EB9D878C8780E090EF9D8F8C8F80E04C
:102C500098EB9F878E8780E098EF9F8F8E8FDF9114
:102C6000CF911F910F910895CF92DF92EF92FF9233
:102C70000F931F93DF93CF9300D00F92CDB7DEB7A2
:102C8000082F6A016A837B8399830E948615898154
:102C90000E947E15802F0E947E15C60180709F774E
:102CA000892F80680E947E158C2D0E947E156A8176
:102CB0007B81E62EF72E00E010E007C0F70181913E
:102CC0007F010E947E150F5F1F4F0C151D05B0F38D
:102CD0000E948815C6010F900F900F90CF91DF9141
:102CE0001F910F91FF90EF90DF90CF9008951F9369
:102CF000DF93CF930F92CDB7DEB7182F99830E9441
:102D0000861589810E947E15812F0E947E1580E0A4
:102D10000E947E1581E00E947E1580E00E947E1553
:102D200089830E94881589810F90CF91DF911F912F
:102D3000089561E070E00E94270F0895EF92FF92DE
:102D40001F93CF93DF93182F64E270E00E94270F48
:102D500080E0EC01812F65E270E00E94270FC80F30
:102D6000D11DCE01DF91CF911F91FF90EF9008957B
:102D70009F92AF92BF92CF92DF92EF92FF920F930A
:102D80001F93CF93DF937C01962E6A015901862F02
:102D90000E949E16C80ED91E96013770892D90E0AC
:102DA000880F991FE80EF91EF70180819181820F2B
:102DB000931FA901400F511FF8E041305F0790F0C9
:102DC000C0E0D8E0C21BD30BB501AE010E9434169F
:102DD000B5016C0F7D1FA8014C1B5D0BF7018081B5
:102DE000918102C0B501A8010E943416B601600F9E
:102DF000711F892D0E94B415DF91CF911F910F9102
:102E0000FF90EF90DF90CF90BF90AF909F9008958C
:102E10000F931F93FA01890140E050E09F010E9447
:102E2000B8161F910F910895EF92FF921F93CF93C1
:102E3000DF93182F66E270E00E94270F80E0EC011C
:102E4000812F67E270E00E94270FC80FD11DCE01CD
:102E5000DF91CF911F91FF90EF900895EF92FF9235
:102E60000F931F93CF93DF93F62EC0E0D0E08F2D0A
:102E70000E9414178C01009721F08F2D0E941417C7
:102E8000EC01C017D10799F7CE01DF91CF911F91C7
:102E90000F91FF90EF900895EF92FF921F93CF93C1
:102EA000DF93182F60E270E00E94270F80E0EC01B2
:102EB000812F61E270E00E94270FC80FD11DCE0163
:102EC000DF91CF911F91FF90EF900895EF92FF92C5
:102ED0000F931F93CF93DF93F62EC0E0D0E08F2D9A
:102EE0000E944C178C01009721F08F2D0E944C17E7
:102EF000EC01C017D10799F7CE01DF91CF911F9157
:102F00000F91FF90EF900895CF92DF92EF92FF9292
:102F10000F931F93DF93CF9300D00F92CDB7DEB7FF
:102F2000082F6A016A837B8399830E9486158981B1
:102F30000E947E15802F0E947E15C60180709F77AB
:102F4000892F0E947E158C2D0E947E156A817B81BF
:102F5000E62EF72E00E010E008C080E00E947E150B
:102F6000F70181937F010F5F1F4F0C151D05A8F31B
:102F70000E948815C6010F900F900F90CF91DF919E
:102F80001F910F91FF90EF90DF90CF900895CF9217
:102F9000DF92EF92FF920F931F93CF93DF9369011C
:102FA00078015770C62FD0E02896CC0FDD1FC80FD0
:102FB000D91F88819981840F951F9801240F351F8F
:102FC00068E02130360788F000E018E0041B150B9C
:102FD000B601A8010E948417B601600F711FA701F6
:102FE000401B510B8881998102C0B601A8010E9443
:102FF0008417DF91CF911F910F91FF90EF90DF9099
:10300000CF9008958F929F92AF92BF92CF92DF920E
:10301000EF92FF920F931F93CF93DF935C01E62E05
:103020004A016901F02E862F0E944C13EC01C50164
:103030006E2DAE01940186010E94C717FF2031F466
:10304000BE016C0D7D1D8E2D0E948913DF91CF91E5
:103050001F910F91FF90EF90DF90CF90BF90AF90B6
:103060009F908F9008951F93162F862F642F0E9494
:10307000AE15812F0E9499168823D9F71F910895C4
:10308000E0917403F091750320E030E008C0808186
:1030900091810296280F391F0280F381E02D30972D
:1030A000B1F7C90108950F931F93DF93CF9300D019
:1030B000CDB7DEB780917203909173038E010F5FDD
:1030C0001F4F009719F40657134008C0081B190B2F
:1030D0001A8309830E944018080F191F1A83098355
:1030E00089819A810F900F90CF91DF911F910F915D
:1030F0000895CF93DF938230910510F482E090E041
:10310000E0917403F091750340E050E020E030E07E
:1031100026C06081718168177907E0F06817790728
:1031200081F4828193812115310531F0D901139603
:103130009C938E9312972BC0909375038093740386
:1031400026C04115510519F06417750718F4AB0135
:10315000E901DF019F0172816381E72FF62F30972C
:10316000C1F64115510501F1481B590B4430510579
:1031700080F412968D919C911397209719F09B8360
:103180008A8304C09093750380937403FD01329683
:1031900046C0FD01E40FF51F8193919342505040CA
:1031A00011965C934E933BC0209172033091730350
:1031B0002115310541F420915B0130915C01309380
:1031C00073032093720320915D0130915E012115FC
:1031D000310541F42DB73EB74091590150915A0144
:1031E000241B350BE0917203F0917303E217F30790
:1031F000A0F42E1B3F0B2817390778F0AC014E5F67
:103200005F4F2417350748F04E0F5F1F509373032D
:10321000409372038193919302C0E0E0F0E0CF010C
:10322000DF91CF910895CF93DF93009709F491C078
:10323000FC013297138212826091740370917503BE
:103240006115710581F420813181280F391F80912A
:103250007203909173038217930799F5F0937303A8
:10326000E093720376C0DB0180E090E002C0CD0104
:10327000D901AE17BF0748F412962D913C911397D0
:1032800021153105A1F7CD0121C0B383A283EF0140
:10329000499159919E01240F351FA217B30779F464
:1032A0002D913C911197240F351F2E5F3F4F318395
:1032B000208312962D913C9113973383228300979C
:1032C00029F4F0937503E093740343C0DC01139673
:1032D000FC93EE9312974D915D91A40FB51FEA17E1
:1032E000FB0769F420813181240F351F2E5F3F4F8A
:1032F000EC0139832883228133813B832A83E0E0F8
:10330000F0E002C0FB01BC01DB0112968D919C91A3
:1033100013970097B9F79B012E5F3F4F8D919C91BA
:103320001197820F931F40917203509173034817B6
:10333000590779F4309729F41092750310927403A9
:1033400002C01382128222503040309373032093C4
:103350007203DF91CF9108950F931F93CF93DF9363
:10336000EC01162FE881F9810480F581E02D0995A3
:10337000082FE881F9810680F781E02DCE01612FC9
:103380000995802F90E0DF91CF911F910F910895C3
:10339000FC0180818F5F808380E86AE472E049E10C
:1033A00050E00E94370A089580E865EE71E045E636
:1033B00050E00E94370A0895EF92FF920F931F93F7
:1033C000DF93CF930F92CDB7DEB789838B017A015C
:1033D00084E0BE016F5F7F4F41E050E00E948909A9
:1033E00084E4B801A7010E9489090F90CF91DF9171
:1033F0001F910F91FF90EF900895FC0191818081C2
:10340000813A31F4913089F081E0933081F412C037
:10341000813269F49B3021F4828180935F0105C081
:103420009A3039F482818093600181E0089580E0D0
:10343000089580E0089582E048E050E00E94DC19A1
:103440000895FC0116821782108611861286138653
:103450001482BC016C5F7F4F0E941B1A0895CF93AA
:10346000DF93DC01683818F0E62FE85826C0E62F15
:10347000F0E067FF13C0E058F04081E090E002C048
:10348000880F991FEA95E2F7809514969C911497FE
:10349000982314969C931497E0E00FC0ED59FD4FCC
:1034A000E491EE23F9F0E7FF08C014968C9114978D
:1034B0008D7F14968C931497EF77ED0186E0EE23C1
:1034C00021F09E819E1709F41E8281502196882347
:1034D000B1F7BD016C5F7F4FCD010E941B1A21E047
:1034E00030E002C020E030E0C901DF91CF910895C3
:1034F000CF93DF93DC01683818F0E62FE85825C039
:10350000E62FF0E067FF12C0E058F04081E090E065
:1035100002C0880F991FEA95E2F714962C91149730
:10352000282B14962C931497E0E00FC0ED59FD4F13
:10353000E491EE23E9F1E7FF08C014968C9114970B
:10354000826014968C931497EF7716968C91169749
:103550008E17B9F117968C9117978E1791F11896CF
:103560008C9118978E1769F119968C9119978E176F
:1035700041F11A968C911A978E1719F11B968C911E
:103580001B978E17F1F0ED01269680E090E0482F12
:103590009C0159910196552329F4ED01C20FD31FC7
:1035A000EE8304C0482F8630910589F7463049F4F0
:1035B00081E090E013969C938E93129720E030E088
:1035C00008C0BD016C5F7F4FCD010E941B1A21E036
:1035D00030E0C901DF91CF9108951092EB02109273
:1035E000EF021092EE028DEC91E09093ED02809349
:1035F000EC02089510921D0381E080931B0310924A
:103600001C0382E061E00E94D50583E061E00E9436
:10361000D505E9EBF0E080818E7F808380818D7F0E
:10362000808388E48093B80085E48093BC0008958B
:103630006132A0F420911D03243091F46093430380
:10364000DC01E6E4F3E070E06E0F7F1F02C08D91B5
:103650008193E617F707D9F780E0089581E0089590
:1036600082E00895882311F085EC01C085E88093FD
:10367000BC00089585ED8093BC008091BC0084FD62
:10368000FCCF10921D03089585EC8093BC0010922E
:103690001D0308951F920F920FB60F9211242F93BE
:1036A0003F934F935F936F937F938F939F93AF93CA
:1036B000BF93EF93FF938091B90090E0887F907063
:1036C0008036910509F4CCC081369105E4F5883245
:1036D000910509F47EC089329105C4F480319105C9
:1036E00009F472C08131910544F4009709F41DC1B9
:1036F0008830910509F01DC167C08831910509F432
:1037000068C08032910509F014C177C080349105FA
:1037100009F489C0813491054CF48033910509F492
:103720006EC08833910509F004C16DC080359105E4
:1037300009F46DC08835910509F47AC08834910583
:1037400009F0F7C0F4C08839910509F4E4C089395B
:103750009105ECF48837910509F482C08937910509
:103760004CF48836910509F47BC08037910509F047
:10377000E0C076C08838910509F4CDC08039910544
:1037800009F474C08038910509F0D3C06FC0803B44
:10379000910509F498C0813B91054CF4803A91055C
:1037A00009F476C0883A910509F0C3C08CC0803C0A
:1037B000910509F4B4C0883C910509F4B0C0883B78
:1037C000910509F0B6C094C08091F8028093BB00C7
:1037D00012C09091F9028091FA029817A8F5809191
:1037E000F902E82FF0E0E550FD4F90819093BB0087
:1037F0008F5F8093F90281E08FC080E201C080E397
:1038000080931E0394C088E380931E0359C0809167
:10381000F9029091BB00E82FF0E0E550FD4F908356
:103820008F5F8093F9029091F9028091FA0270C043
:103830008091F9029091BB00E82FF0E0E550FD4F38
:1038400090838F5F8093F90280911B03882309F096
:103850006EC081E080931C0384EA8093BC0062C048
:1038600083E080931D0310921F03C5CF80911F0337
:10387000803208F050C080911F039091BB00E82F68
:10388000F0E0E05EFC4F90838F5F80931F03B3CF27
:1038900080911F03803230F4E0911F03F0E0E05E7E
:1038A000FC4F10820E943A1B60911F03E09140037D
:1038B000F091410380E293E070E0099510921F03BC
:1038C0000E94441B36C084E080931D031092420383
:1038D00010924303E0914403F091450309958091D0
:1038E0004303882329F481E0809343031092460325
:1038F00080914203E82FF0E0EA5BFC4F90819093C7
:10390000BB008F5F809342039091420380914303F9
:10391000981708F470CF80E00E94321B0AC081E043
:103920000E94321B10921D0304C010921E030E94BD
:103930003A1BFF91EF91BF91AF919F918F917F9132
:103940006F915F914F913F912F910F900FBE0F900C
:103950001F90189581E161E00E94D50581E161E049
:103960000E9490058CB580618CBD8CB580648CBD47
:103970008FE061E00E94900580E161E00E94900587
:1039800008950F9386E693E060E040E020E000E0D9
:103990000E9474070F910895FC01DB0112962D918E
:1039A0003D914D915C9115972283338344835583D8
:1039B000178216820895E62FF72FDF018D91882355
:1039C000E9F780E090E020E030E020C08F3F9105F3
:1039D00009F09CF5DA01A20FB31F12968C9312978F
:1039E0002F5F3F4F80E090E011C0BC01660F771F52
:1039F000B3E0880F991FBA95E1F7680F791F8A2FF6
:103A0000992787FD9095C097860F971FA191AA23AC
:103A100031F0243031051CF4AE3239F7D7CF8F3F67
:103A2000910509F054F4243031053CF4240F351F7E
:103A3000F901828321E030E002C020E030E0C901DA
:103A400008956F927F928F929F92AF92BF92CF9282
:103A5000DF92EF92FF920F931F93DF93CF9300D0EB
:103A60000F92CDB7DEB77C01A62E872E0E9491045F
:103A7000F701778366838701085F1F4FB7016A5F8D
:103A80007F4FC80142E050E00E94AD1181E090E01C
:103A90009B838A8392E0E92EF12CEC0EFD1EC80177
:103AA000B70142E050E00E94AD1180E091E09B83BD
:103AB0008A83C801B70142E050E00E94AD111B8229
:103AC0001A82C801B70142E050E00E94AD11C8015E
:103AD000B70142E050E00E94AD11C801B70142E0D9
:103AE00050E00E94AD11CA2CD82CB82C3E0108948D
:103AF000611C711C1FC0F5016F018191882311F0B9
:103B00008E32D1F746018A189B081814190474F4F0
:103B10008C2D8A198983C801B30141E050E00E94CD
:103B2000AD11C801B501A4010E94AD115601089460
:103B3000A11CB11CF60180818823E9F61982C80115
:103B4000BE016F5F7F4F41E050E00E94AD11C12C7C
:103B500081E0D82EDB82CA82C801B70142E050E082
:103B60000E94AD11DB82CA82C801B70142E050E079
:103B70000E94AD1181E090E00F900F900F90CF91D7
:103B8000DF911F910F91FF90EF90DF90CF90BF904A
:103B9000AF909F908F907F906F9008952F923F925B
:103BA0004F925F926F927F928F929F92AF92BF924D
:103BB000CF92DF92EF92FF920F931F93DF93CF93F9
:103BC000CDB7DEB76B970FB6F894DEBF0FBECDBF93
:103BD0006C014B015B8F4A8F0E9491042B013C01C9
:103BE00058E0E52EF12CEC0CFD1CAA24BB2412C0DD
:103BF0000E9491046419750986099709861697062B
:103C0000A806B90608F427C162E370E080E090E0FE
:103C10000E94C504C7010E945A111816190644F7DC
:103C2000F60182809380A480B5808E01085F1F4FCB
:103C3000C801B7010E94B310F80182819381A48169
:103C4000B58188169906AA06BB0609F007C1F601D8
:103C5000858D968D8533910509F000C11EC18E01B9
:103C6000025F1F4FC701B8014CE050E00E940E11E7
:103C7000F801828193819827892798279B838A83DB
:103C8000F601468157812E853F854217530711F46F
:103C900097FD06C0C7010E94E2102CEF3FEFE3C082
:103CA0008F709270009731F0C7010E94E2102BEFE5
:103CB0003FEFD9C0F80126803780322423243224F4
:103CC0002114310441F0CC24DD2458014E01089424
:103CD000811C911C29C0C7010E94E2102AEF3FEF0E
:103CE000C2C0C701B40141E050E00E940E118981B9
:103CF000882321F409C0C7010E9430118981982FBF
:103D0000915099838823B9F78981882351F700E07E
:103D100010E0C7010E9430110F5F1F4F04301105E2
:103D2000C1F70894C11CD11CF501848195819827A5
:103D300089279827C816D906A0F2CC24DD244E0185
:103D40000894811C911C44E0A42EB12CAC0EBD1E25
:103D500036E0432E512C4C0E5D1E22E0622E712C5B
:103D60006C0E7D1EC701B40141E050E00E940E11AF
:103D70008981982F907C69F4882321F40EC0C701B3
:103D80000E9430118981982F915099838823B9F727
:103D900004C0C7010E94301119828981882311F75C
:103DA000C701B50142E050E00E940E11C701B20107
:103DB00042E050E00E940E1104E010E0C7010E94B2
:103DC000301101501040D1F7C701B30142E050E07B
:103DD0000E940E118C819D81F1E080309F0719F0C7
:103DE00000E010E023C08E819F8121E080309207A7
:103DF000B9F78A819B81E4E080309E0731F0C701EA
:103E00000E94E21027EF3FEF2EC06A8D7B8D6E5F20
:103E10007F4FC70144E050E00E940E1121E030E0E6
:103E200022C0C7010E9430110F5F1F4F8A819B8102
:103E30009827892798270817190798F30894C11C11
:103E4000D11CC214D30408F48DCFC7010E94E21024
:103E500026EF3FEF08C02FEF3FEF05C02EEF3FEFFB
:103E600002C02DEF3FEFC9016B960FB6F894DEBF8D
:103E70000FBECDBFCF91DF911F910F91FF90EF90BB
:103E8000DF90CF90BF90AF909F908F907F906F907A
:103E90005F904F903F902F900895C7010E94C810E7
:103EA0008C309105F4F2DBCEAF92BF92CF92DF92CD
:103EB000EF92FF920F931F93DF93CF93CDB7DEB7AF
:103EC00028970FB6F894DEBF0FBECDBF8C016B01F3
:103ED0005A010E94DB1C009709F06AC0F801228198
:103EE00033814481558180916E0390916F03A0913D
:103EF0007003B0917103281739074A075B0709F46B
:103F00005AC068E0E62EF12CE00EF11E0E949104EA
:103F10006F70707060507C4FC7010E94E611813055
:103F200009F04CC087E791E09A838983F801828188
:103F30009381A481B5818B839C83AD83BE83C701AC
:103F4000BE016F5F7F4F45E350E00E94C8119C01A6
:103F5000009731F1C801B6010E94211D0097F1F0D0
:103F6000C7010E94C3119C01009731F419C0FFEFF3
:103F70002F3F3F07A9F402C0CC24DD24C80168E824
:103F800073E1A5010E94CE1D282F392F0894C11C72
:103F9000D11C83E0C816D10419F0E9CF20E030E04D
:103FA000C7012F8338870E94D1112F81388508C01F
:103FB00021E030E005C02EEF3FEF02C020E030E00E
:103FC000C90128960FB6F894DEBF0FBECDBFCF91C2
:103FD000DF911F910F91FF90EF90DF90CF90BF90F6
:103FE000AF9008950F938CE693E060E040E020E00E
:103FF00000E00E9474070F910895F8940C945E20DD
:10400000DC0101C06D9341505040E0F70895AA1BB8
:10401000BB1B51E107C0AA1FBB1FA617B70710F0B3
:10402000A61BB70B881F991F5A95A9F780959095E5
:10403000BC01CD010895A1E21A2EAA1BBB1BFD01F4
:104040000DC0AA1FBB1FEE1FFF1FA217B307E40777
:10405000F50720F0A21BB30BE40BF50B661F771FCF
:10406000881F991F1A9469F76095709580959095AF
:104070009B01AC01BD01CF01089597FB092E0526D8
:104080000ED057FD04D0D7DF0AD0001C38F450956D
:104090004095309521953F4F4F4F5F4F0895F6F76C
:1040A00090958095709561957F4F8F4F9F4F0895A4
:1040B000EE0FFF1F0590F491E02D0994F894FFCFC7
:1040C00045746865726E657420496E697469616CC7
:1040D000697A65642E2E2E005374617274696E675E
:1040E0002045746865726E65742E2E2E004D792001
:1040F000495020616464726573733A20002E004950
:104100006E697469616C697A696E672E2E2E000083
:10411000E1000000000000000480007603000001C0
:1041200001000000005606A5070D0633061B067E9B
:1041300006820600000000270700000000CB0C9953
:104140000C6B0C740C880C980C000000007D0E05A4
:104150000FF60EDB0EB20E930E3210540FD60EED8C
:104160000FC90FAA0E00000000CC10AD11C810300E
:1041700011F410E210E611D111C8113212C3115A14
:10418000110E11AB10B310C41000000000AC19A543
:0841900007781A2F1A211A000A
:00000001FF
